:020000040800F2
:1000000000000220FDA80B0881A90B08AD8D060891
:1000100081A90B0881A90B0881A90B080000000029
:1000200000000000000000000000000081A90B0893
:1000300081A90B080000000081A90B087D39050883
:1000400081A90B0881A90B0881A90B0881A90B08BC
:1000500081A90B0881A90B088DF2040891F204080C
:1000600095F2040899F204089DF20408D5420408A8
:10007000E9420408FD42040811430408254304082A
:10008000394304084D43040881A90B0881A90B08D2
:1000900081A90B0881A90B0881A90B08A1F204080A
:1000A00081A90B0881A90B0881A90B0885450408C3
:1000B00099450408AD450408C1450408FD35040808
:1000C000F1350408313604082536040881A90B08E7
:1000D00081A90B08495004085550040861500408D0
:1000E000A5F2040881A90B0800000000FD450408E2
:1000F0004D46040875460408E945040861430408B0
:1001000081A90B08B9600408D545040881A90B082A
:100110006D50040881A90B0881A90B08DD7404083F
:1001200075430408894304089D430408B143040847
:10013000C543040881A90B0881A90B0881A90B08F4
:1001400000000000000000000000000000000000AF
:10015000D9430408ED430408014404087950040815
:10016000653604085936040881A90B0881A90B08D3
:1001700081A90B0881A90B0881A90B0800000000C8
:1001800081A90B0881A90B08855004089150040827
:1001900081A90B0881A90B0881A90B0881A90B086B
:1001A00081A90B0881A90B0881A90B0881A90B085B
:1001B00081A90B0881A90B0881A90B0881A90B084B
:1001C00081A90B0881A90B0881A90B0881A90B083B
:1001D00081A90B08ED60040881A90B0881A90B080F
:1001E00081A90B0881A90B0881A90B0881A90B081B
:1001F00081A90B0881A90B0881A90B0881A90B080B
:1002000081A90B0881A90B0881A90B0881A90B08FA
:1002100011460408254604083946040881A90B083C
:1002200081A90B0881A90B0881A90B080000000017
:10023000BD60040881A90B080000000081A90B081B
:1002400081A90B0881A90B0881A90B0881A90B08BA
:1002500081A90B0881A90B0881A90B0881A90B08AA
:1002600081A90B0881A90B0881A90B0881A90B089A
:1002700081A90B0881A90B0881A90B0800000000C7
:1002800081A90B080000000081A90B0800000000F4
:080290000000000081A90B0829
:08029800A8980B000100000012
:1002A000A89A01240204000004014500C89A012410
:1002B0000205000004014400E89A01240112000034
:1002C00000017600089B01240114000000011E00BB
:1002D000289B0124011A000000010D00489B012405
:1002E0000115000000010C00689B012401160000AC
:1002F00000010C00889B0124011B000000010E007E
:10030000A89B0124011C000000011E00C89B0124C1
:100310000117000000010C00E89B012401180000F7
:1003200000010E00089C01240119000000010C00CE
:10033000289C0124011E000000010C00489C01249F
:10034000011F000000010C00689C0124012801002D
:1003500000001800889C01240120000000004800D3
:10036000A89C01240121000000004900C89C012430
:100370000122000000004A00E89C01240123000043
:1003800000004B00089D01240124000000004C00E7
:10039000289D01240125000000004D00489D0124F6
:1003A0000126000000004E00689D01240127000086
:1003B00000004F00889D0124012B0000000029004F
:1003C000A89D0124012C010000002900C89D0124E2
:1003D000012D010000007000E89D0124012F0000A4
:1003E00000003100089E0124012E0100000052008F
:1003F000289E01240130010000002800489E0124AD
:100400000131010000002800689E01240229050036
:1004100000002C00889E01240134000000003C00F4
:0C042000A89E012401370000000020000D
:020000040804EE
:10000000836B5A6D12F0500F5A6D1AD1196842F471
:1000100000725A650A6812F0080FCA6816D012F406
:10002000406F15D1CA68920412D45A6D22F48072BE
:100030005A655A6DD1040BD45A6D42F001025A65CB
:100040007047D20604D4DB6CDB6C18479007ECD009
:10005000704700BF704700BF836B5A6D42F040028B
:100060005A659A6D42F004029A65704702685549D4
:1000700038B5554B554D564CAA4218BF9A420CBF45
:10008000012300238A4208BF43F001033031A2421A
:1000900008BF43F0010330348A4208BF43F0010334
:1000A0003031A24208BF43F0010330348A4208BF16
:1000B00043F0010301F55C71A24208BF43F0010364
:1000C00004F55C748A4208BF43F001033031A24258
:1000D00008BF43F0010330348A4208BF43F00103F4
:1000E0003031A24208BF43F0010330348A4208BFD6
:1000F00043F001033031A24208BF43F001038A42BA
:1001000008BF43F0010313B9324B9A4208D10423CC
:1001100080F83530136823F001031360002038BDE8
:100120002D4B2E4D1168AA4218BF9A422C4C21F03B
:100130000E0105F13C050CBF012300231160A24212
:1001400008BF43F0010311682834AA4208BF43F0F6
:10015000010321F00101A24208BF43F0010314345E
:100160001160A24208BF43F001031E498A4208BF42
:1001700043F0010313B91C4B9A4217D10123856D3B
:10018000D0E91714226801F01F0122F480728B401D
:1001900022606B60C36ED0E91921516033B11A68D7
:1001A000D0E91C1422F480721A604C6001210022F4
:1001B000036D80F8351080F83420002BAED09847BE
:1001C000ACE700BF4000024010000240280002409F
:1001D00058000240B80402401C5402580854025807
:1001E0003054025880540258945402580168002236
:1001F0000B6880F842205A0410B40ED50B6823F423
:1002000080430B6090F84130292B10D090F841309A
:100210002A2B24D05DF8044B70471B04F2D50B68E1
:1002200023F400430B6090F84130292BEED12822B3
:10023000212380F841200022036390F841300C68AC
:1002400003F02803282B14BF6FF0F2036FF0420372
:1002500023405DF8044B0B6080F840207047282253
:10026000222380F841200022036390F841300C687B
:1002700003F02803282B14BF6FF0F4036FF044033E
:1002800023405DF8044B0B6080F84020704700BFAE
:100290000023202210B4174C4363C462036380F828
:1002A000412080F842304B07026811D5526A436AF8
:1002B0001A70436A028D013343624AB1438D013A99
:1002C000013B02859BB24385436C43F004034364C6
:1002D0000368102490F84120002190F841201A680A
:1002E00022F0FE021A60DC615DF8044B80F84010D9
:1002F000704700BF0000FFFF70B5574B002590F816
:100300004120044680F84250283AC3624585436C38
:10031000022A41EA0301036841642FD890F8411092
:1003200090F84120282001F0280102F02802282915
:1003300014BFF6214621282A1A680CBFC9436FF062
:10034000F6010A4045491A6084F84100A06B226B0F
:10035000616318B1112A42D0212A40D0E06B18B154
:10036000122A51D0222A4FD094F84130602B4FF0FE
:1003700000032DD0236384F8403070BD90F84120F5
:1003800090F841201A6822F0FE021A609A699207DA
:1003900000D59D629A69D60703D49A6942F001029A
:1003A0009A6194F84120602A10D0202284F84120DC
:1003B0009A6995060AD59A69D00605D51022DA61A0
:1003C000626C42F0040262642022DA610021BDE71F
:1003D000202284F8403084F84120236370BD1A68DD
:1003E00051042CD490F83530012BBDD000221C4B89
:1003F000036584F8402090F83520022A24D080221A
:100400004265BDE8704018471A68120403D51A689F
:1004100022F400421A6090F83530012BA4D000225B
:100420000F4B036584F8402090F83520022AE6D16E
:10043000FFF71CFE0028A0D0E06B036DE1E71A680F
:1004400022F480421A60CDE7FFF710FE002894D016
:10045000A06B036DD5E700BF0000FFFFDD040408BB
:100460002D08040803689A69196810B4D40528D5C2
:100470000C0606D4416C11F00B0F1FD15DF8044B34
:100480007047416C4FF4807441F0010141645105A3
:10049000DC6120D5416C4FF48064920541F0080185
:1004A0004164DC61E6D5426C4FF4007142F0020217
:1004B0004264D961416C11F00B0FDFD05DF8044B41
:1004C0001AE7540502D50906E4D4D3E79405D1D53B
:1004D0000906E8D4CEE79205E5D4CBE7F8B590F865
:1004E00040300D46C16A012B00F008810123AE06A1
:1004F000044680F8403001D5900656D4EB0619D555
:10050000D70617D5638D9BB2002B40F0F98094F885
:100510004130B1F1007FDBB240F0D580282B40F0B4
:10052000D28029462046FFF7B3FE0023184684F800
:100530004030F8BD68071AD42F0701D516074AD4F2
:10054000A807F2D59307F0D5638D9BB2002B00F07E
:10055000FA80616A236811F8010B228D9862638D1D
:10056000013A6162013B22859BB26385DDE7530757
:10057000E2D5638D9BB26BB12268636A526A1A70CE
:10058000638D606A228D013B0130013A9BB260624B
:1005900022856385638D9BB2002BC6D111F5803F08
:1005A000C3D02046FFF722FEBFE72368202118684A
:1005B000E66A94F84120D961213A092A1ED8DFE879
:1005C00012F0C70015001D001D001D001D001D00BC
:1005D000F000C700150094F84130226803F02803AA
:1005E000282B00F0C5800823D3619EE794F84120B2
:1005F0001A6822F0FC021A60222222635A68894992
:1006000042F400425A605A680A405A609A69910757
:1006100001D500229A629A69D20703D49A6942F0FE
:1006200001029A6147047BD51A6822F480421A605D
:10063000A26B1AB111684A6892B262856A070BD53B
:100640005A6A25F00405636A1A70636A01336362AB
:10065000238D002B40F08580638D9BB21BB1636CB2
:1006600043F004036364EB061AD5C70618D5638DFF
:100670009BB2002B40F0AA8094F84130282B03D184
:10068000B6F1007F00F0C98094F8413016F5803F44
:100690002268DBB202D0292B00F0AD801023D36199
:1006A000002384F84230666C6363002E40F084803F
:1006B000E36A5D4DAB423DD194F84130202384F88C
:1006C0004130266331E794F841202368292A4FF00E
:1006D0001002DA617FF429AF11F5803F3FF425AFB6
:1006E0009A69960701D500229A629A69D5073FF563
:1006F00058AF9A6942F001029A6152E70220F8BDB0
:1007000023681022DA61636C43F00403636431F000
:1007100080737FF40AAF616C2046FFF7EDFD04E7BC
:1007200001048BD51A6822F400421A60E26B002A99
:1007300080D183E72046FFF759FD2023E56284F846
:1007400041302663F1E631F080737FF4EEAE28E7A6
:1007500094F841201A6822F0FA021A6021222263DA
:100760004CE7013B2385638D013B9BB2638573E7B7
:10077000E1689369022990699368D56836D1C3F31B
:10078000C21383EA104313F006032FD1A16C013189
:10079000A164A16C02297FF4C8AE0821A364D161D1
:1007A000C3E694F8412094F841201A6822F0FE0232
:1007B0001A600022226321E7616C2046FFF79CFD4E
:1007C00094F84130282B7FF4B0AEAAE623681022BB
:1007D000DA61636C43F00403636436F080737FF482
:1007E0005FAF616C2046FFF787FD59E7136823F080
:1007F000B803136099E61023D3619369980701D574
:10080000002393629369D90703D4936943F00103EA
:1008100093612046FFF7EAFC42E729462046FFF7AE
:1008200037FD3DE700E800FE0000FFFF836B9A6B99
:100830000AB100211165DA6B0AB10021116593F844
:100840004120602A05D000221A63002283F840204C
:1008500070470022202183F841101A63002283F898
:1008600040207047016870B4CC072DD5914A1369B8
:10087000926A03F03803102B00F0E180182B00F08F
:10088000D9804368B3F5803F00F00581002B00F06C
:100890005A81B3F5A02F874B1A6800F0678222F4C3
:1008A00080321A601A6822F480221A60824B41F268
:1008B000883C804C1D6804E01A68521B624500F2B7
:1008C0003F8122689603F7D58A0768D4CD0631D5D3
:1008D000784A1369926A03F03803082B00F0C0804D
:1008E000182B00F0B880C369724C002B00F05F81B8
:1008F0002268714B42F0800222601D6804E01A6891
:10090000521B022A00F21C812268D205F7D56B4BDC
:10091000026A1D6841F20303B3EB154FC0F0448235
:100920006368202A23F0F8430CBF43F0804343EA76
:10093000826363600D0713D543695E4C002B00F0A2
:100940001881626F5C4B42F0010262671D6804E02F
:100950001A68521B022A00F2F380626F9207F7D5E1
:100960008C0613D58369534C002B00F0118122684B
:10097000514B42F4805222601D6804E01A68521BF9
:10098000022A00F2DD8022689204F7D5490700F1BF
:100990008880436A002B40F0BC80002059E0454A23
:1009A0001369926A13F038032BD1424AC368126864
:1009B000520701D5002B4BD03E4C226822F0190281
:1009C0001A433D4B22601D6804E01A68521B022A3C
:1009D00000F2B68022685607F7D5384B02691D68C9
:1009E00041F20303B3EB154F6368C0F0028123F4B7
:1009F0007C33402A0CBF43F4003343EA0233636084
:100A000064E7182B00F0F180C3682A4C002B00F03B
:100A1000DD80226822F019021A43274B22601D68EC
:100A200004E01A68521B022A00F28A8022685207E8
:100A3000F7D5D2E702F00302022A7FF422AF1D4B62
:100A40001B689B037FF540AF4368002B7FF43CAFEE
:100A5000012070BC704702F00302012A7FF443AF0B
:100A6000144B1B68DC0502D5C369802BF0D1134CF5
:100A700041F20303026A2468B3EB144FC0F0BF8055
:100A8000202A00F09E810B4C636823F0F84343EA70
:100A9000826363604EE7074A136843F48033136050
:100AA00004E70749044B0A6842F480720A601C6834
:100AB0000CE000BF00440258002D00240010005C30
:100AC000004802581A68121B642A39D80A68D505EA
:100AD000F8D58268012A00F06E81002A00F04E816C
:100AE000052A9F4A116F00F0748121F001011167FE
:100AF000116F21F0040111671D6841F28834984993
:100B000003E01A68521BA2421AD80A6F9207F8D55E
:100B10003FE793490A6902F03802182A00F0D580AD
:100B20000A68022B8F4B22F080720A606FD018681F
:100B30000A6892017FF531AF1A68121A022AF7D9B2
:100B4000032070BC7047864C41F28835854B226883
:100B500022F480322260226822F4802222601E6801
:100B600003E01A68921BAA42EAD822689203F8D4DA
:100B7000AAE6626F7B4B22F0010262671D6803E008
:100B80001A68521B022ADBD8626F9607F8D4E7E690
:100B90002268744B22F4805222601D6803E01A68B8
:100BA000521B022ACCD822689604F8D4EEE62268BA
:100BB0006C4B22F0800222601D6803E01A68521B11
:100BC000022ABDD82268D605F8D4B3E62268654B60
:100BD00022F0010222601D6803E01A68521B022AFB
:100BE000AED822685607F8D470E694077FF40CAFAD
:100BF000DBE623F0FE4343EA0263636066E6584C9B
:100C0000E36823F07C5343EA0263E36092E61C68E6
:100C100003E01A68121B022A92D80A689501F8D4D8
:100C20008C6A514A2240846A2243C46A42EA04120E
:100C30008A62D0E90D24013A013C5202240492B2A6
:100C400004F4FE042243046B013CC4F30804224371
:100C5000C46B013C240604F0FE4422430A63CA6AC2
:100C600022F00102CA624A6B846C6FF3CF0242EA3F
:100C7000C4024A63CA6A046C22F00C022243384C54
:100C8000CA62CA6A406C22F002020243CA62CA6A9D
:100C900042F48032CA62CA6A42F40032CA62CA6A44
:100CA00042F48022CA62CA6A42F00102CA620A6839
:100CB00042F080720A601968226890013FF56DAEBB
:100CC0001A68521A022AF7D93AE7012B8A6A0D6B81
:100CD0003FF4BEAE02F00303846AA3427FF4B8AED1
:100CE000C2F30512C36A9A427FF4B2AE036BC5F336
:100CF0000802013B9A427FF4ABAE436BC5F3462238
:100D0000013B9A427FF4A4AE836BC5F30642013BDC
:100D10009A427FF49DAEC36BC5F30665013B9D42CD
:100D20007FF496AE4B6B816CC3F3CC0399423FF4D6
:100D300034AE0B480B4BC26A22F00102C2621A6841
:100D400018688242FCD0064A536B6FF3CF0343EA24
:100D5000C1035363D36A43F00103D3621DE600BFAE
:100D600000440258002D00240CFCFFFF42F48022B6
:100D70001A601A6842F480321A6097E5194941F204
:100D800088350A6F22F001020A670A6F22F0040216
:100D90000A671C6804E01A68121BAA423FF6D0AE2C
:100DA0000A6F9607F7D4F4E5E36823F07C5343EA2F
:100DB0000263E360BEE50B490A6F42F001020A6775
:100DC0009AE6084A536823F0F84343F0804353609F
:100DD000B0E541F004011167116F41F001011167A5
:100DE0008AE600BF00440258334B30B4996A9C6ACB
:100DF000DD6A14F47C7F5A6BC4F3051036D0C2F35D
:100E0000CC0205F0010501F0030107EE900A05FB95
:100E100002F20129B8EEE77A06EE902AFAEEE96AC4
:100E200002D0022942D019B3DFED247A87EE876A17
:100E30001B6BC3F3080307EE903AF7EE005AF8EE87
:100E4000E77A77EEA67A77EEA57A67EE867A1A4B7E
:100E50001B6BC3F34623013307EE103AF8EEC76A63
:100E600087EEA67AFCEEC77A17EE900A30BC704780
:100E70001A6892061DD51968F7EE005A104A1B6BC6
:100E8000C1F3C101C3F30803CA4007EE903A06EE6E
:100E9000102AF8EEE77AB8EEC66A77EEA66AC6EED2
:100EA000077A36EEA57A67EE877AD0E7DFED057A26
:100EB000BCE7DFED057AB9E7004402580024744A24
:100EC0000090D0030024F44A0024744C836A1A076B
:100ED00010B406D50168846B4A6822F400422243AC
:100EE0004A60DC0706D50168C46A4A6822F4003209
:100EF00022434A60990706D50168046B4A6822F4C8
:100F0000803222434A605A0706D50168446B4A681A
:100F100022F4802222434A60DC0606D50168C46BB5
:100F20008A6822F4805222438A60990606D50168B5
:100F3000046C8A6822F4005222438A605A060AD559
:100F40000168446C4A68B4F5801F22F4801242EABA
:100F500004024A600BD01B0606D50268C16C5368B8
:100F600023F400230B4353605DF8044B70474A6839
:100F7000846C22F4C00222434A60ECE70022836BB7
:100F8000A3F85E20704700BF124B41F2883C124A22
:100F900001461B68A2FB03235B0A0CFB03F33BB176
:100FA0004A6B12F0450F01D0920404D5013BF7D1F2
:100FB0004FF0004070474B6B5B0707D4486B10F055
:100FC000010014BF0123054B8B63704704231846AF
:100FD0008B63704700000024D34D6210C5002000D1
:100FE000036942681F2B70B430D9A3F1200520217A
:100FF0005468A940214227D08169087C022835D055
:1010000048681F2BC9681B4D4E680169C1F3032452
:10101000194951F8244015F804C0056856F80C40E9
:1010200024F0010446F80C40407901EB4001088CA3
:10103000E96800F4F05021EA0001E96010D9A3F159
:10104000200120238B40D36070BC7047202114689E
:1010500099402142F8D08169087C0228D0D105E06E
:10106000202101FA03F370BC9360704700200874DC
:10107000C6E700BF9C360C08A0350C08D0E9072352
:101080009A423CBFC1685218D01A7047D0E9092370
:1010900000699A4238BF12180138D31AC01A704733
:1010A000D0E90902101AB0FA80F04009704700BF79
:1010B000016A034640694A1C405CD9688A4228BFDD
:1010C00000221A62704700BF436A826910B4D1548B
:1010D000436A416B046901330A68A34228BF0023B5
:1010E0005DF8044B42F0800243620A60704700BF23
:1010F000436BD86910F0100002D0102201201A6250
:10110000704700BF704700BF704700BF704700BF07
:1011100001207047014B5868704700BF002D002424
:10112000074B93F8A422012A01D10020704793F8BD
:10113000A402A0F10300B0FA80F04009704700BF9C
:10114000002D0024012380F849307047EFF311820D
:10115000702383F312880849D2B2D1E9B93182F3FE
:101160001188581E8B42A0EB01008CBF0023012385
:1011700000EB0330704700BF002D002470B5D0F89D
:10118000D442D0F8C86200EB840EDEF8C05245B3FA
:1011900001F00F040A4604EB840C00EB8C0CDCF825
:1011A00018306BB9DEF8C43200211B69C5F814127F
:1011B00023B105F50471D5F808029847002070BDE9
:1011C00004EBC40406EB8406F469B3FBF4F604FBF9
:1011D0001633002BE6D11A46CCF8183077F098F980
:1011E000ECE7032070BD00BFD0F8D42200EB8202F0
:1011F00010B5D2F8C042ACB101F00F03D0F8C8026C
:10120000D2F8C42204F5037103EBC303D26800EBE8
:101210008303D4F80402D3F86832C4F80C32904740
:10122000002010BD032010BDD0F8D43200EB8300A5
:1012300010B5D0F8C04284B1D0F8C4325BB194F894
:101240000002FF2807D09B68214694F801229847A6
:10125000FF2384F80032002010BD032010BD00BF22
:1012600030B52B4C86462379E5889D4242D91846F5
:10127000043419461A4602E0954246D921780C44B6
:101280000A44617892B20529F6D1A1788229F3D176
:101290009C461A461F4903E0AA4234D291F800C086
:1012A0006144624491F801C092B2BCF1050FF3D1E0
:1012B00091F802C0BCF1010FEED1164A02E0A8423B
:1012C0001DD213781A44034492F801C098B2BCF1BD
:1012D000050FF4D19378812BF1D10CB11023A371B8
:1012E00019B10020022308714B711AB100210223A9
:1012F0001171537143230748AEF8003030BD00220E
:10130000002CEBD1ECE70021D7E70024C0E700BFB9
:10131000000000240400002430B52B4C86462379BD
:10132000E5889D4242D91846043419461A4602E01F
:10133000954246D921780C440A44617892B2052935
:10134000F6D1A1788229F3D19C461A461F4903E0C1
:10135000AA4234D291F800C06144624491F801C0BD
:1013600092B2BCF1050FF3D191F802C0BCF1010FAC
:10137000EED1164A02E0A8421DD213781A44034463
:1013800092F801C098B2BCF1050FF4D19378812B8B
:10139000F1D10CB11023A37119B100204023487181
:1013A0000B711AB100214023517113714323074877
:1013B000AEF8003030BD0022002CEBD1ECE700216C
:1013C000D7E70024C0E700BF000000240400002489
:1013D000A2E700BF03460A2201481A80704700BFF7
:1013E00048000024064B4FF0120C064AA3F11400EB
:1013F000526DA1F800C0022A18BF1846704700BFFE
:101400006800002400400058042301480B80704706
:101410007C0000241D48D0F80038D0F8082830B5EA
:101420009B184FF01A040C8001D1194830BD184A9E
:101430000024D0F8040802F1100511464FEA137E8B
:10144000B3F1204FCC7001F102010EF1370C38BF1F
:101450000EF1300C8D424FEA031381F800C0EDD13C
:1014600002F108050024010FB0F1204FD47402F1FD
:10147000020201F1370338BF01F1300395424FEA10
:1014800000101374EFD1024830BD00BF00E0F11F1F
:101490008000002400207047212808B527D022288A
:1014A00018D0202814D199B1072A11D1184A194B04
:1014B0000868B1F804C0D2F8EC228979C3F89C001E
:1014C000A3F8A0C083F8A21012B1014600209047F3
:1014D000002008BD0029FBD0022AF9D10C4BD3F81B
:1014E000F032002BF4D0098800209847F0E700295B
:1014F000EED0072AECD1074BD3F89C00B3F8A0201C
:1015000093F8A230086000208A808B7108BD00BF6C
:10151000002D0024000000242DE9F047046982B06A
:10152000C3681C4046D0814688464FF0004501F113
:10153000500701F13806B4FA84F325FA03F21B3B95
:10154000D2431440C9F81020B8F1000F5FD0042B2B
:101550002ED8DFE803F052483D320300D8F81030AF
:10156000D9F82CA033B19B6823B11FFA8AF108F196
:1015700008009847D8F8283033B19B6823B11FFA88
:101580008AF108F120009847D8F8403033B19B68C1
:1015900023B11FFA8AF108F138009847D8F858307B
:1015A00033B19B6823B11FFA8AF108F150009847C4
:1015B000002CC0D102B0BDE8F087D8F8103008F197
:1015C0000800D9F834105B689847002CB3D1F1E7D4
:1015D000D8F8283008F12000D9F838105B6898470F
:1015E000002CA8D1E6E7D8F840303046D9F83C10B6
:1015F0005B689847002C9ED1DCE7D8F85830384615
:10160000D9F840105B689847002C94D1D2E7042B9E
:1016100007D8DFE803F01903140F0A00D9F83C30AB
:101620000193019B002C86D1C4E7D9F82C3001939B
:10163000019BF7E7D9F834300193019BF2E7D9F821
:1016400038300193019BEDE7D9F840300193019BBD
:10165000E8E700BF0A49D1F8F4324A685BB1002AD2
:10166000FCD0013A10B513F8014B4A60C1F8F432CE
:1016700012B1204610BDFEE773F0A6FB204610BD58
:10168000002D0024F8B50E4E96F8A432012B00D19F
:10169000F8BD96F8A432032BFAD10D461446D6F8BD
:1016A000F87208E007F00EFED6F8F832241A054466
:1016B000DB1B322BECD8002C21462846F2DCF8BD8F
:1016C000002D0024F8B590F848305D1C0344EDB2BD
:1016D00080F8485083F8341090F8493053B1132DF6
:1016E00007D9002380F84830104F97F8A432012B17
:1016F00005D1F8BD80F84830002DF5D1F8BD97F838
:10170000A432032BF5D1D7F8F86200F1340429464E
:10171000204607F0D7FDD7F8F8322D1A04449B1B5A
:10172000322BE6D8002DF2D1F8BD00BF002D0024E9
:10173000F8B5002390F84850A0F8483005B9F8BD36
:101740000D4F97F8A432012BF9D097F8A432032B50
:10175000F5D1D7F8F86200F134042946204607F0A5
:10176000B1FDD7F8F8322D1A04449B1B322BE6D872
:10177000002DF2D1F8BD00BF002D00242DE9F0416D
:10178000012104464FF4077081F050FC0546002803
:101790006CD0D4F8D46204EB8606C6F8C002237C71
:1017A000C4F8BC02002B40D04023022281212046F5
:1017B00076F020FC0121402302222046218776F08A
:1017C00019FC4FF001080823032282212046A4F8C7
:1017D000788176F00FFC294B0027E364D6F8C432F9
:1017E000C5F804721B689847D5F80402C5F814724E
:1017F000C5F8187200283ED0227CD4F8C83222BB2B
:10180000C3F88C224FF400749A7903F51E71C3F863
:101810008402012AA3F87882C3F8884223D018688A
:1018200076F066FD0020BDE8F08120464FF400739D
:101830000222812176F0DEFB01214FF400730222A7
:101840002046218776F0D6FBBBE79A79402403F542
:101850001E71C3F88C72012AC3F88402A3F878823F
:10186000C3F88842DBD1C3F89402D8E7D4F8D43265
:10187000B03344F823000220BDE8F08101001000DD
:10188000F8B5D0F8C85240F20112044695F89434E5
:101890002A87012B3ED00126002728683246314690
:1018A00085F8946476F0B4FE27873A463146286876
:1018B000A5F8786285F8946476F0AAFE4FF48173F7
:1018C000A4F8787132460221286885F89464A5F856
:1018D0005C3076F09DFE85F89474D4F8D4320025FF
:1018E00004EB8303E564D3F8C0228AB1D3F8C43291
:1018F0005B689847D4F8D432B03354F8230080F0B2
:1019000025FCD4F8D432B03344F82350C4F8BC5288
:101910000020F8BD00224FF481710287A5F87832CB
:10192000A0F87821A5F85C10D7E700BFD0F8D43232
:1019300000EB8303F0B5002683B0D3F8C0728DF8B6
:101940000560ADF806605FB191F800C004460D4631
:101950001CF060022FD0202A05D0204676F08EFCA5
:10196000032003B0F0BDCA884878002A42D01CF09A
:10197000800F00F08380D3F8C43239469B689847C3
:10198000EA8802234FF48071072AC4F8943228BFF2
:101990000722D4F8C832C4E906225A629A79998299
:1019A00003F11401012A1F629E6200D11F631868AF
:1019B00076F09EFC22E04B780B2BCED801A252F899
:1019C00023F000BF011A0408FD1904085B1904087C
:1019D0005B1904085B1904085B1904085B19040807
:1019E0005B1904085B1904085B190408411A040810
:1019F000371A0408D3F8C4329B6898470020B0E730
:101A000090F89C32032BA8D10222D0F8C8320020D3
:101A1000C4F8942203F11401C4E906220DF106046E
:101A20009862C3E908424FF480729A829A79012A37
:101A3000BDD11C63BBE790F89C32032BDED08CE752
:101A400090F89C32032B88D101220221D0F8C832B1
:101A5000C0F8941203F11401C0E906220DF105004B
:101A6000C3E908024FF4807200209A829A79986242
:101A7000012A9CD10DF10500186398E7402A4FF028
:101A8000030387F8000228BF402287F80122C4F828
:101A90009432D4F8C832C4F85821C4F85C2103F554
:101AA0001571C3F864229A79C3F86072012AC3F8E9
:101AB0006862A3F8546208BFC3F8707277E700BF8A
:101AC00008B520B9044872F09BFB044808BD0448DF
:101AD00072F096FB014808BD44DA0C08FC2F002484
:101AE00068DA0C08024808B572F08AFB014808BDA4
:101AF0008CDA0C08FC2F0024024808B572F080FB39
:101B0000014808BD94DA0C08FC2F0024024808B5EF
:101B100072F076FB014808BDA0DA0C08FC2F002407
:101B200070B5124D124A2B68A2FB03239B09013B9F
:101B3000B3F1807F01D3012070BD4FF0E0220D4949
:101B400000240F2853614FF0F003064681F823303C
:101B50004FF0070394611361EDD801464FF0FF3059
:101B600073F04CF82046C5F8A46070BD0000002456
:101B7000D34D621000ED00E03749024603688B4206
:101B800033D01831591AB1FA81F1490969BB334888
:101B9000834240D01830834240D01830834236D040
:101BA000183083423DD01830834240D018308342F1
:101BB0002CD000F55670834237D029498B4233D060
:101BC00018318B4236D018318B4236D018318B42C7
:101BD00036D018318B4236D018318B4236D018317E
:101BE0008B4236D023F0FF0013E0DBB21D491E48C4
:101BF000103B10B41D4CA4FB03435DF8044B01EBF8
:101C0000131393F82810C2E91601704716211848DB
:101C1000D1659065704710211348F9E716211248E5
:101C2000F6E706211248F3E706211248F0E71021F3
:101C30000F48EDE710210F48EAE716210D48E7E7C6
:101C400000210D48E4E706210B48E1E710210A488E
:101C5000DEE716210848DBE71000024040000240A2
:101C600028040240A0350C0800000240ABAAAAAA32
:101C7000040002400004024004040240F0B50C4697
:101C8000114602688646936913F0100C72D04FF02B
:101C9000000C102338486546D36193699E065FD4D3
:101CA00045B903685B1AA3423DD893699F06F8D5EE
:101CB0002023D3614CF0040C01209369D90552D53F
:101CC0004FF480715F054CF0010CD16104D54FF4E5
:101CD00080614CF0080CD1619D0504D54FF4007370
:101CE0004CF0020CD3619369990701D500239362EC
:101CF0009369DB0703D4936943F00103936153684D
:101D000020241E4901200B4000215360DEF844309E
:101D10008EF8401043EA0C03CEF844308EF8414070
:101D20008EF84210F0BD57689EF842309669DBB2DB
:101D3000360408D57E0406D4202B04D0536843F41F
:101D400080435360016893699F06A6D403685B1AB9
:101D5000192BF8D993694FF0200C01259E069FD5C9
:101D6000002DA5D0A6E75E05B1D49C05B6D4002809
:101D7000B9D1F0BD6046A0E7002D002400E800FEC8
:101D80002DE9F04707689A46089EBB6931EA0303CC
:101D90000CBF01230023934220D180460C461546F8
:101DA000DFF85C90324651464046FFF767FF20BBA4
:101DB000D9F80030A3EB060CD44507D9BB6934EA47
:101DC00003030CBF01230023AB420AD0BB6934EAF2
:101DD00003030CBF01230023AB42E3D00020BDE886
:101DE000F087D8F84430202288F840001343C8F820
:101DF000443088F8412088F842000120BDE8F0878F
:101E0000002D00240C4A136903F03803102B0DD069
:101E1000182B09D063B913689B060BD513680748C4
:101E2000C3F3C103D8407047FEF7DEBF04487047D4
:101E30000448704701487047004402580090D0039E
:101E400000127A0000093D00184A136903F03803B4
:101E5000102B10B524D0182B09D01BBB13689B0680
:101E600022D513681248C3F3C103D84001E0FEF73E
:101E7000BBFF0E490F4A8B698969C3F303230E4CDC
:101E800001F00F0113440A4493F8301092F83030F7
:101E900001F01F0203F01F03D0402060D84010BDA6
:101EA0000648E6E70648E4E70148E2E7004402584E
:101EB0000090D003A0350C080000002400127A0026
:101EC00000093D00474A70B4946A956AD66A15F4D1
:101ED0007C3FC5F30533D16B5BD0C1F3CC01C6F3B6
:101EE000001604F0030407EE903A06FB01F1012C02
:101EF000B8EEE77A06EE901AFAEEE96A03D0022C01
:101F00006AD0002C4AD0DFED387A87EE876A936B6F
:101F1000C3F3080307EE903AF7EE005AF8EEE77ABB
:101F200077EEA67A77EEA57A67EE867A2D4AB7EE37
:101F3000006A936BC3F3462307EE103AB8EEC77AF4
:101F400070BC37EE067AC7EE876AFCEEE66AC0ED33
:101F5000006A936BC3F3064307EE103AB8EEC77AF4
:101F600037EE067AC7EE876AFCEEE66AC0ED016AD4
:101F7000936BC3F3066306EE903AF8EEE66A76EEEC
:101F8000866A87EEA67AFCEEC77A17EE903A8360EF
:101F9000704770BCC0E900338360704713689B06CC
:101FA0001DD51468F7EE005A936B1049C4F3C102B3
:101FB000C3F30803D14007EE903A06EE101AF8EE8C
:101FC000E77AB8EEC66A77EEA66AC6EE077A36EE0C
:101FD000A57A67EE877AA9E7DFED057A95E7DFED69
:101FE000057A92E7004402580024744A0090D00316
:101FF0000024F44A0024744C474A70B4946A956AE9
:10200000D66A15F07C7FC5F30553516C5BD0C1F3E4
:10201000CC01C6F3002604F0030407EE903A06FB59
:1020200001F1012CB8EEE77A06EE901AFAEEE96AB1
:1020300003D0022C6AD0002C4AD0DFED387A87EE2C
:10204000876A136CC3F3080307EE903AF7EE005A61
:10205000F8EEE77A77EEA67A77EEA57A67EE867ADB
:102060002D4AB7EE006A136CC3F3462307EE103A0D
:10207000B8EEC77A70BC37EE067AC7EE876AFCEE18
:10208000E66AC0ED006A136CC3F3064307EE103A2C
:10209000B8EEC77A37EE067AC7EE876AFCEEE66AD4
:1020A000C0ED016A136CC3F3066306EE903AF8EED6
:1020B000E66A76EE866A87EEA67AFCEEC77A17EEB7
:1020C000903A8360704770BCC0E90033836070470A
:1020D00013689B061DD51468F7EE005A136C10495F
:1020E000C4F3C102C3F30803D14007EE903A06EEF1
:1020F000101AF8EEE77AB8EEC66A77EEA66AC6EE70
:10210000077A36EEA57A67EE877AA9E7DFED057ADA
:1021100095E7DFED057A92E7004402580024744AFF
:102120000090D0030024F44A0024744C02698368B0
:1021300070B5044605681343C069626986B02968B2
:102140001343AC4A03430A40616A1343E2682B60BD
:102150006B6823F440531343A2696B60A64B9D4206
:1021600000F06681236AAE681A43A44B33401A43D9
:10217000AA60EB6A23F00F030B43EB62A04B9D4276
:1021800028D0A04B9D421AD09F4B9D4217D09F4B09
:102190009D4214D09E4B9D4211D09E4B9D4219D022
:1021A0009D4B9D420BD09D4B9D4208D001200023AA
:1021B0004FF001126367A266A36706B070BD984B2B
:1021C0005B6D03F00703052BF0D8DFE803F09F7F7A
:1021D0008A925F79924B5B6D03F03803282BE5D828
:1021E00001A252F823F000BF95230408AD21040892
:1021F000AD210408AD210408AD210408AD21040877
:10220000AD210408AD210408CD220408AD21040845
:10221000AD210408AD210408AD210408AD21040856
:10222000AD210408AD210408E3220408AD2104080F
:10223000AD210408AD210408AD210408AD21040836
:10224000AD210408AD210408F3220408AD210408DF
:10225000AD210408AD210408AD210408AD21040816
:10226000AD210408AD2104088D220408AD21040825
:10227000AD210408AD210408AD210408AD210408F6
:10228000AD210408AD210408C1220408B0F5004FB7
:10229000644853D0644B626803EB4103B3F84030A9
:1022A000B0FBF3F000EB52004FF6EF73B0FBF2F02F
:1022B000A0F110029A423FF679AFE860002076E77D
:1022C000B0F5004F3AD04FF40040E3E7B0F5004FCF
:1022D0002DD003A8FFF7F6FD04980028EED0616A20
:1022E000D8E7B0F5004F71D06846FFF785FE01983A
:1022F000F3E7B0F5004F5ED0494B1A68920639D526
:102300001B684A48C3F3C103D840C3E7B0F5004F88
:1023100032D0FFF799FD424A434BD269C2F3021211
:10232000134493F8303003F01F03D840D5E703A8D7
:10233000FFF7C8FD04980028C0D0616A3A4B626874
:1023400003EB41034FF6EF71B3F84030B0FBF3F00D
:10235000530803EB4003B3FBF2F3A3F110028A42EC
:102360003FF624AF23F00F02C3F3420392B21343AC
:10237000EB60A3E72D488DE7FFF766FD284A2A4B5F
:10238000D269C2F30212134493F8303003F01F03F2
:10239000D840D0E7B0F5004F1DD0FFF755FD204ADB
:1023A000214BD269C2F30222134493F8303003F078
:1023B0001F03D84091E71A4B1A68900640F1A58098
:1023C0001B681A48C3F3C103D840B7E76846FFF754
:1023D00013FE0198AFE7FFF737FD114A124BD269A0
:1023E000C2F30222134493F8303003F01F03D840A5
:1023F000A1E700BFF369FFCF000C0058FFF4FF1105
:10240000001001400044004000480040004C0040E3
:10241000005000400014014000780040007C004063
:102420000044025800093D00A0350C080090D0037C
:10243000A868374B03401343364AAB60EB6A23F07E
:102440000F030B43EB62936D03F00703052B3FF67D
:10245000ADAEDFE803F0413C3303524F2D4B1A6819
:1024600095064CD42C482D4B656803EB410305EBD6
:102470004501B3F84020B0FBF2F399423FF696AE27
:10248000B3EB053F3FF692AE0023194678F01CFAF5
:102490002A460902030241EA1061680818184FF041
:1024A000000341F1000178F00FFA1D4BA0F54072D6
:1024B0009A423FF67BAE1B4BD860FFE66846FFF7BB
:1024C0009BFD019800283FF4F9AE616ACBE703A8B1
:1024D000FFF7F8FC0498F5E7FFF7B6FC0D4A0F4B41
:1024E000126AC2F30212134493F8303003F01F0350
:1024F000D840E7E74FF40040B5E70B48B3E71B6867
:102500000548C3F3C103D840ADE7034816E700BF51
:10251000FFF4FF11004402580090D003A0350C08CE
:10252000FFFC0F00000C005800093D00474A70B442
:10253000946A956AD66A15F47C7FC5F30513516BCE
:102540005BD0C1F3CC0106F0010604F0030407EEF2
:10255000903A06FB01F1012CB8EEE77A06EE901AEC
:10256000FAEEE96A4ED0022C6DD0002C4DD0DFED92
:10257000387A87EE876A136BC3F3080307EE903A45
:10258000F7EE005AF8EEE77A77EEA67A77EEA57ABC
:1025900067EE867A2D4AB7EE006A136BC3F34623C3
:1025A00007EE103AB8EEC77A70BC37EE067AC7EE7F
:1025B000876AFCEEE66AC0ED006A136BC3F306435C
:1025C00007EE103AB8EEC77A37EE067AC7EE876A9A
:1025D000FCEEE66AC0ED016A136BC3F3066306EE18
:1025E000903AF8EEE66A76EE866A87EEA67AFCEE18
:1025F000C77A17EE903A8360704770BCC0E9003329
:1026000083607047DFED137AB3E713689B06AED59E
:102610001468F7EE005A136B0F49C4F3C102C3F3F9
:102620000803D14007EE903A06EE101AF8EEE77A6A
:10263000B8EEC66A77EEA66AC6EE077A36EEA57AD7
:1026400067EE877AA6E7DFED057A92E70044025845
:102650000024744C0024744A0090D0030024F44AEF
:10266000344A136830B423F08063334C1360256818
:1026700003E023685B1B022B54D813681B01F8D4BA
:10268000936A056823F47C3343EA053393628368D5
:10269000C568013B013D5B022D049BB205F4FE05BC
:1026A0002B434568013DC5F308052B430569013DF2
:1026B0002D0605F0FE452B439363D36A456923F04D
:1026C000C0032B43D362D36A856923F020032B43D5
:1026D000D362D36A23F01003D362D36BC0696FF364
:1026E000CF0343EAC003D363D36A43F01003D3623A
:1026F000D36AD1B101290CBF43F4801343F4001312
:10270000D3620C4A136843F080631360216803E0CE
:1027100023685B1A022B05D813681B01F8D500202B
:1027200030BC7047032030BC704743F40023D362B1
:10273000E7E700BF00440258002D0024344A136824
:1027400030B423F08053334C1360256803E02368D2
:102750005B1B022B54D813689B00F8D4936A05685E
:1027600023F07C7343EA055393628368C568013B99
:10277000013D5B022D049BB205F4FE052B43456829
:10278000013DC5F308052B430569013D2D0605F004
:10279000FE452B431364D36A456923F440632B43FE
:1027A000D362D36A856923F400732B43D362D36A5F
:1027B00023F48073D362536CC0696FF3CF0343EA91
:1027C000C0035364D36A43F48073D362D36AD1B134
:1027D00001290CBF43F4000343F08073D3620C4A19
:1027E000136843F080531360216803E023685B1A89
:1027F000022B05D813689B00F8D5002030BC704729
:10280000032030BC704743F48003D362E7E700BF86
:1028100000440258002D0024F0B5354AB0F1804F35
:10282000344DA0EB02020368A0EB050E4C69B2FA2E
:1028300082F28F68BEFA8EFE0E684FEA52124FEA9D
:102840005E1E1FD0F2B9DFF8B8C0604537D00CF576
:10285000806C604533D00CF5806C604512D0BEF1C1
:10286000000F0FD1244D254A904218BFA8422AD00C
:1028700002F58062904226D023F08003C762866210
:102880001C4314E04D6823F07003D1F80CC02B43B7
:10289000C762866223F4407343EA0C0323F080038B
:1028A0001C4312B9BEF1000F16D00B690363036815
:1028B000012243F00403036042610460F0BD23F091
:1028C00070034A681343CA6823F44073C762134312
:1028D000866223F080031C43074A084B984218BFC6
:1028E0009042E2D003F580639842DED0DFE700BF7C
:1028F000000001400004014000400140004401404C
:1029000000040040554B0021554A1B685548A2FB66
:10291000032330B5DB0C544C83B0013BC4F80C14DA
:10292000C4F8041442F20F7194F83924C4F8FC037B
:10293000C4F80814C4F80034002A00F08A80022584
:102940004A49484884F83954FFF766FF0123484A4A
:102950000621372084F8443484F83A3484F83B3430
:1029600084F83C3484F83D3484F83E3484F83F34B1
:1029700084F8403484F8413484F8423484F8433491
:1029800084F83934D2F8E83043F02003C2F8E83054
:10299000D2F8E83003F020030193019B72F02EF986
:1029A000344B4FF400025A6094F83934012B3BD178
:1029B000D4F8FC23304B3148B2F1804F18BF9A4213
:1029C00084F83954D1680CBF0123002341F0010180
:1029D000824208BF43F0010300F58060D16082426B
:1029E00008BF43F0010300F580602549824208BF1B
:1029F00043F0010300F57840824208BF43F0010331
:102A00008A4208BF43F0010313B91E4B9A4207D113
:102A100091681D4B0B40062B06D0B3F5803F03D0C9
:102A2000136843F001031360D4F8DC3204EB830332
:102A3000D3F8C83243B115480021154AC3F808023B
:102A4000C3F81012C3F804220020C4E9BB0003B08D
:102A500030BD02F0FF0084F8380470E70000002465
:102A600083DE1B4300140040002D002400310024AD
:102A70000044025800E100E0000001400004004072
:102A8000001800400040014007000100A848002451
:102A9000A8380024026810B452E8003F23F4907371
:102AA00042E800310029F7D1144C02F1080353E841
:102AB000003F234002F1080C4CE800310029F4D11A
:102AC000C36E012B08D0002320225DF8044BC0F810
:102AD0008C204367C366704752E8003F23F0100321
:102AE00042E800310029EED052E8003F23F0100305
:102AF00042E800310029EFD1E5E700BFFEFFFFEF1C
:102B0000436BDA69F0B5970683B0044642D5586A3C
:102B1000E36AC0B2002B00F09580216B9847636B8D
:102B20001A681D4622F480721A609A6822F0010227
:102B30009A609A6942F008029A61DA69D6072DD440
:102B4000DA69900701D502221A62DA69510701D5C4
:102B500004221A62DA69120701D508221A62DA69B8
:102B6000170612D5D4F8BC20212A0ED0D4E90912B8
:102B70008A4273D0A169895C0132C9B29962216924
:102B8000B2FBF1F001FB1022A262DA69560608D40A
:102B900003B0F0BDDA691D46D607D1D501221A620D
:102BA000CEE7DA6940F60F0C1E6804F1340012EA31
:102BB0000C0F996836D0B24F0F4040F0BB80DFF861
:102BC000CCC216EA0C0F40F06381D4F8A050012D5E
:102BD0004CD0D50202D54F0200F16781150606D50B
:102BE00001F4000106F080050D4340F043815106D9
:102BF000CED57206CCD553E8002F22F0400243E830
:102C0000002141B1626B52E8003F23F0400342E8EB
:102C100000310029F7D120220023C4F8BC20C4F8D9
:102C2000AC30B5E79506D0D506F0200501F0805709
:102C30003D43CAD0D4F8A830002BA9D003B0BDE8DA
:102C4000F0401847E3696269D054E369E2680133F0
:102C5000B3FBF2F102FB1133E36160E70022A4F859
:102C60008A201A6822F080021A608EE7D706B0D553
:102C7000F506AED51022B4F890501A629A6857063D
:102C800040F11D81D4F8B40001684A6892B2002A6C
:102C900000F05081AA4280F04D81C169A4F89220D1
:102CA000B1F5807F40D053E8002F22F4807243E8D2
:102CB000002141B1626B52E8001F21F4807142E8AB
:102CC0000015002DF7D103F1080252E8002F22F081
:102CD000010203F1080545E800210029F3D103F1C1
:102CE000080252E8002F22F0400203F1080545E8EF
:102CF00000210029F3D12022C4F8C020C4F8A0107C
:102D000053E8002F22F0100243E80026002EF7D1EE
:102D10005C490D6840B190F83530022B00F013810A
:102D2000802380F8346043650223C4F8A430B4F8EB
:102D300092302DE712F0010F0CD016F4807F09D0ED
:102D40004FF0010CC3F820C0D4F8C4C04CF0010C03
:102D5000C4F8C4C012F0020F7BD112F0040F0CD0E3
:102D600011F0010F09D04FF0040CC3F820C0D4F8C3
:102D7000C4C04CF0020CC4F8C4C012F0080F0CD050
:102D800006F0200C5CEA070C07D008271F62D4F875
:102D9000C47047F00807C4F8C47017050AD5770156
:102DA00008D54FF400671F62D4F8C43043F0200305
:102DB000C4F8C430D4F8C430002B3FF4E9AE920616
:102DC0000CD506F0200601F080510E4306D0D4F851
:102DD000A8301BB101909847656B0198D4F8C420C6
:102DE000AB6802F0280203F04003134361D0FFF701
:102DF00051FEAB685B067FF5CBAE05F1080353E8E7
:102E0000003F23F0400305F1080141E8003262B1C0
:102E1000626B02F1080353E8003F23F0400302F124
:102E2000080040E800310029F3D1D4F8B4000028AC
:102E30003FF4AEAE90F83520134B022A03653BD128
:102E4000FDF714F900283FF4A3AED4F8B400036DE5
:102E5000F4E611F0010F90D04FF0020C12F0040FC5
:102E6000C3F820C0D4F8C4C04CF0040CC4F8C4C0EB
:102E700083D078E7D4F8AC30002B7FF4DFAE87E660
:102E800001000010002D00247D0F04082001000423
:102E900012F0010F3FF471AF16F4807F7FF450AF52
:102EA00012F0020F7FF469AF57E74FF480121A62F5
:102EB0006EE6C4F8C4306BE680224265BEE6B4F824
:102EC0009220B4F8921092B289B2AA423FF460AE56
:102ED00000293FF45DAE53E8002F22F4907243E8DE
:102EE000002141B1626B52E8001F21F4907142E869
:102EF00000100028F7D1954803F1080252E8002F8E
:102F0000024003F1080545E800210029F4D1202200
:102F1000C4F8A810C4F8C020C4F8A01053E8002FCB
:102F200022F0100243E800210029F7D10223C4F85F
:102F3000A4302DE6AA427FF42BAEC369B3F5807F9F
:102F40007FF426AEF2E70368814A824E824FB34295
:102F500018BF934206F118060CBF01220022B342AB
:102F600008BF42F001021836B34208BF42F0010226
:102F70001836B34208BF42F001021836B34208BF08
:102F800042F0010206F55676B34208BF42F0010254
:102F90001836B34208BF42F001021836B34208BFE8
:102FA00042F001021836B34208BF42F0010218365F
:102FB000B34208BF42F001021836B34208BF42F0E4
:102FC00001021836B34208BF42F00102A6F592662C
:102FD000BB4218BFB34207F592670CBF012600261B
:102FE000BB4208BF42F0010256EA020779D0D3F88B
:102FF00000C02CF01E0CC3F800C0D3F814C02CF095
:10300000800CC3F814C0D0F860C076BBD0F860C0A4
:10301000DCF8006026F48076CCF800601A6822F0B4
:1030200001021A6003E00A68521B052A24D81A68B4
:10303000D607F8D4D0E9165101F01F012FB33F2372
:103040008B40AB60C36ED0E91921516033B11A686F
:10305000016F22F480721A60436F4B6001220023DB
:1030600080F8352080F834305EE6DCF8002022F469
:103070008072CCF80020D1E7202103220023416593
:1030800080F8343080F835204EE6344A344EB3426E
:1030900018BF934206F114060CBF01220022B3426E
:1030A00008BF42F001021436B34208BF42F00102E9
:1030B0001436B34208BF42F001021436B34208BFCF
:1030C00042F00102012606FA01F1696025498B42AE
:1030D00008BF42F00102002AB4D1234A9342B1D082
:1030E000BCE71E4EDFF878C0634518BFB3420CF151
:1030F000140C0CBF01260026634508BF46F00106EC
:103100000CF1140C634508BF46F001060CF1140CD9
:10311000634508BF46F001060CF1140C634508BF77
:1031200046F00106D3F800C02CF00E0CC3F800C026
:10313000DFF830C0634508BF46F00106002E7FF47B
:1031400065AF094EB3423FF461AF67E7FEFFFFEFA3
:103150004000024058000240280002400854025833
:103160001C54025880540258945402584B4B10B4CB
:103170001B684B4CA4FB03435B0A03FB02F25AB1EE
:103180008446531E4748DCF83420013B024201D0FC
:10319000920406D55C1CF6D14FF000405DF8044B5C
:1031A0007047DCF834305C0741D4DCF83430D807A1
:1031B00009D43D4BCCF83830DCF81030DBB2994202
:1031C00005D00120EAE70123CCF83830F9E7DCF834
:1031D0001430364818400028E0D0002B2CDB5A0071
:1031E0002DD49C002DD4D9002DD41A012ED45C01ED
:1031F0002FD4D90130D41A0231D45C0232D49902CE
:103200003CD4DA0237D45C0332D499032DD4DA03E8
:1032100040D41C043BD4590436D49A0431D413F05E
:10322000080F0CBF4FF480304FF40000B6E70423C2
:103230001846CCF83830B1E74FF00070AEE74020C8
:10324000ACE78020AAE74FF48070A7E74FF4007046
:10325000A4E74FF48060A1E74FF400609EE74FF4CD
:1032600080509BE74FF4005098E74FF4802095E79B
:103270004FF4003092E74FF400408FE74FF4804066
:103280008CE74FF4800089E74FF4001086E74FF495
:10329000801083E74FF4002080E700BF0000002487
:1032A000D34D621045002000C500200008E0FFFD5E
:1032B00082B00023019302E00369002B09DB019B2C
:1032C00001330193019BB3F1706FF5D9032002B074
:1032D00070478901002341F020010193016103E05F
:1032E000036913F0200307D0019B01330193019B75
:1032F000B3F1706FF4D9E9E7184602B0704700BF28
:1033000082B00023019302E00369002B09DB019BDB
:1033100001330193019BB3F1706FF5D9032002B023
:103320007047002210230192036103E0036913F048
:10333000100307D0019B01330193019BB3F1706F20
:10334000F4D9EBE7184602B0704700BF82B0002303
:10335000019302E00369002B09DB019B0133019318
:10336000019BB3F1706FF5D9032002B070470023C1
:103370000193036943F00103036103E0036913F060
:10338000010307D0019B01330193019BB3F1706FDF
:10339000F4D9E9E71846E8E72DE9F8430568074658
:1033A0000C46C5F31009B9F1000F39D18A4B4FF61D
:1033B000FF72B3F88030934256D0002B54D0874A26
:1033C00002EA432808F10068454534BF4FF0010880
:1033D0004FF00208824B9D4206D903F500339D420F
:1033E00000F2CF804FF001097E4E96F85C34012B3D
:1033F00012D00123B8F1010F86F85C344FF00003BE
:10340000C6F8603436D0022071F0A4FB002800F02A
:103410009980002386F85C344FF0FF30BDE8F883D4
:10342000704E96F85C34012B4CD0012386F85C3446
:1034300005F17843B3F5801F48D3A5F10163B3F5D7
:10344000801F3FD200230220C6F8603471F082FB57
:10345000002870D1644A4FF00208D2F80C3143EAD8
:103460000803C2F80C313FE0B5F1016F67D30520C6
:1034700010F02EFB404671F06DFB0028C9D140468C
:10348000DFF86481D8F80C3023F4E663C8F80C3018
:10349000D8F80C3043EA092343F0A403C8F80C30F1
:1034A00071F058FBD8F80C20504B1340C8F80C3082
:1034B0000028AED105F178430122B3F5801F86F8CC
:1034C0005C2403D36FF00100BDE8F88300230120E2
:1034D000C6F8603471F03EFB68BB434A4FF0010808
:1034E000D36843F00203D360BFF36F8FBFF34F8FF6
:1034F00004F1200254F8043B944245F8043BF9D10E
:10350000BFF36F8FBFF34F8F404671F023FBB8F1CD
:10351000010F354A30D0D2F80C3123F00203C2F843
:103520000C31002386F85C340028CBD13B68203373
:103530003B60BDE8F883002386F85C34C2E74FF0B7
:10354000010847E7DFF8A0800220D8F80C3123F407
:10355000E663C8F80C31D8F80C3143EA092343F08C
:10356000A403C8F80C3171F0F5FAD8F80C211F4B00
:103570001340C8F80C319BE7D36823F00203D360F3
:10358000CFE703F500339D4211D903F500339D4287
:1035900010D903F500339D4206D903F500339D424F
:1035A0000BD84FF005091FE74FF004091CE74FF057
:1035B000020919E74FF0030916E703F500339D42AE
:1035C00006D9B5F1016FBFF452AF4FF007090BE711
:1035D0004FF0060908E700BF00E8F11F00FE1F00DA
:1035E000FFFF0108002D002400200052FBF8FFFF20
:1035F0000148FCF737BF00BF68310024084810B409
:10360000D0F86834D0F89C4499691A682CB12346E4
:1036100000F58D605DF8044B18475DF8044B70476A
:10362000002D00240148FCF71DBF00BFC03100245D
:10363000084810B4D0F8C034D0F8F44499691A6836
:103640002CB1234600F598605DF8044B18475DF8EF
:10365000044B7047002D00240148FCF703BF00BF56
:1036600018320024084810B4D0F81835D0F84C456A
:1036700099691A682CB1234600F5A3605DF8044BE4
:1036800018475DF8044B7047002D00242DE9F04FDA
:10369000DFF8649300EB400583B0430009EB850538
:1036A0000093D5F8A8300193002B00F0628180468A
:1036B000B5F8AE0071F03CF895F8AC000BF0A2FE46
:1036C000044695F8AD000BF09DFE08F10103074696
:1036D000DBB2002C00F0728140F60C12A18823723C
:1036E000E2802268002800F05D81037240F60C231E
:1036F000C38091613B68BA889A61112120460926EE
:103700000BF03CFE112138460BF038FE6525002CED
:1037100000F032812268A38811690B4200F02C81ED
:103720001B04936110F078F905468B4610F074F98C
:10373000401B61EB0B01052871F10001F6D314B1B8
:103740002368A2889A6110F067F905468B4610F04D
:1037500063F9401B61EB0B01052871F10001F6D301
:10376000013ED3D11CB1A38822681B04936110F0E1
:1037700053F905460E4610F04FF9401B61EB060168
:10378000052871F10001F6D31FB1BB883A681B040C
:10379000936110F041F905460E4610F03DF9401BCB
:1037A00061EB0601052871F10001F6D314B123681D
:1037B000A2889A6110F030F905460E4610F02CF9F7
:1037C000401B61EB0601052871F10001F6D317B12A
:1037D0003B68BA889A61009B20463E21434409EB2E
:1037E000830393F8B34022460BF0EAFD22463846A5
:1037F0003E210BF0E5FD7A4C5823019A03FB084368
:10380000C3F86824774B9A4200F0C780FEF71CFB90
:10381000754BDA69C2F30212744B134493F83030DB
:1038200003F01F03D840009B434409EB830393F844
:10383000B030022B00F0BD80032B00F0B580012BCF
:1038400014BF4FF4C8714FF4487170F007FD034680
:103850005822002102FB0842C2F87014C2F8781402
:10386000C2F87C14C2F88414C2F888140121C2F88A
:103870006C34C2F8741492F8A91401F0FF00002906
:1038800000F0A480582123F0706224264FF40047F2
:1038900001FB08415648D1F8683481F8A9641D68D5
:1038A00025F001051D601A619A6822F400429A60B1
:1038B0009F605A6822F400625A605A681043D1F837
:1038C000802458601202D86820F40040D860DA6082
:1038D00000221A60186840F0010018602020C1F82A
:1038E000AC2481F8A904C1F8982481F8AA2491F89D
:1038F000A9042028C5B217D191F8A804012813D033
:1039000081F8A964186820F001001860186820F494
:103910008050186018681860186840F0010018603E
:1039200081F8A95481F8A824009B02210126314F77
:10393000434409EB830999F8B250284671F05EF9C7
:1039400005F01F036A0999F8B15006FA03F3022142
:10395000284647F8223071F051F9582303FB0844F8
:1039600005F01F036D0906FA03F347F8253084F8C4
:10397000646403B0BDE8F08F013D2AD010F04CF82C
:1039800083468A4610F048F8B0EB0B0061EB0A0161
:10399000052871F10001F5D3B9E6FEF755FA124B8F
:1039A0001A6A37E79161A8E6C82170F057FC034610
:1039B0004EE7642170F052FC034649E700283FF4CB
:1039C0009CAE037240F60C23C38093E682F8A804F1
:1039D00058E7002C3FF4A6AEA3882268A0E600BFFB
:1039E000002D0024001C005800440258A0350C088B
:1039F0000080000200E100E0000000242DE9F04F0B
:103A0000441C85B017469DF83C202DD05824DFF883
:103A1000A8831E46054600FB04F408EB040393F854
:103A20006494B9F1000F1FD044444900FF2F04F5FE
:103A30008D64039100D0EEB9002A40F0C68058236F
:103A400003FB058393F8A924202A04D1B6B94FF4C7
:103A50000072C3F8AC24B8F86C35284601339BB229
:103A6000A8F86C35FFF712FE4FF00009484605B084
:103A7000BDE8F08F93F8A934202BECD14FF0580A11
:103A80000AFB058A9AF8A834012BE4D00122D8F861
:103A900000B019234FF400418AF8A8242046CDF83D
:103AA00000B0FEF76DF90028D5D10E9BDAF8681446
:103AB000CAF88C342123BA4A8AF8A9344023CAF8B8
:103AC0009C048AF8AA34CAF8AC042046AAF8926486
:103AD0004B681340039A1343B24A1A434A6059464B
:103AE00071F00AF80246002840F0FB80DAF86834EA
:103AF000802120469F620A23CDF800B0FEF740F9EE
:103B0000002840F0EE80BAF892349BB2FF2B40F2CE
:103B10001681DAF86814FF23A348AAF890344B689A
:103B2000A24A0340039803431A434A605826DDF82B
:103B30000CA05F46039506FB058605E0B6F89234B7
:103B40009BB2002B00F010813946204670F0D4FF64
:103B5000002840F0F280D6F88C14D6F8685411F89A
:103B6000012BB6F89034AA62C6F88C14013BB6F863
:103B700092149BB20139A6F8903489B2A6F8921437
:103B8000B6F8921489B2002BD8D10029D6D00246BB
:103B90000A23802120460097FEF7F2F8FF22002832
:103BA00040F0CB80B6F892349BB2934240F2A080B2
:103BB000D6F86814A6F890244B687B4A13407B4AD9
:103BC00043EA0A031A434A60B8E74FF0580A0AFB6F
:103BD000058A9AF8A934202B7FF43DAF9AF8A834CF
:103BE000012B3FF438AF0122D8F8007019234FF4AD
:103BF00000418AF8A82420460097FEF7C1F8002863
:103C00007FF429AF0E9BCAF89C04CAF88C34212398
:103C10008AF8A93410238AF8AA34CAF8AC04AAF89E
:103C20009264BAF892349BB2FF2B00F2C780BAF8C4
:103C300092349BB2AAF89034002B40F0F180DAF86D
:103C4000681457484B685A4A0340039803431A4381
:103C50004A605826AA4606FB0586B6F892343946CD
:103C60009BB2002B00F0D480204670F045FF002866
:103C700078D1D6F88C14D6F8685411F8012BB6F820
:103C80009034AA62C6F88C14013BB6F892149BB229
:103C90000139A6F8903489B2A6F89214B6F89214B5
:103CA00089B2002BD9D10029D7D002460A2380211E
:103CB00020460097FEF764F8FF22002852D1B6F89C
:103CC00092349BB2934225D9D6F86814A6F8902472
:103CD0004B68354A1340039A1343344A1A434A60E7
:103CE000BBE75823002203FB058383F8A824B2E630
:103CF000B6F89234D6F868249BB22B485168A6F8DF
:103D00009034DBB201404AEA03430B4343F00073B3
:103D1000536013E7B6F89234D6F868149BB2039A4E
:103D20002148A6F89034DBB242EA03434A680240D5
:103D3000134343F000734B608FE7039D8BE6BAF8A3
:103D40009234DAF868149BB2039A1748AAF89034B0
:103D5000DBB242EA03434A680240134343F0007374
:103D60004B60E3E6554676E639462046039D70F003
:103D700095FE00287FF46FAED6F8683420210D4CF4
:103D8000D9615A6822405A605823002286F8A91443
:103D900003FB058386F8AA0483F8A82466E600BF1F
:103DA000009800FC00200101009C00FC0000FF01C5
:103DB0000020000200E800FE002D0024FF234FF445
:103DC0007F00FE224FF08076AAF89034039BDDF846
:103DD00038E01E4358231EF801AB03FB0583DFF8D0
:103DE00050C0D3F86814C1F828A0A3F89024B3F801
:103DF0009224C3F88CE4013A92B2A3F892244B685F
:103E000003EA0C033343034343F400534B6020E7BE
:103E10002046554670F042FE00287FF41CAEABE70A
:103E2000013B4FF000769AB2501CC0B20004CDE7BF
:103E3000009800FC2DE9F04F441C85B099469DF890
:103E40003C3000F096805825C34C064600FB05F533
:103E500004EB050B9BF864A4BAF1000F00F0898015
:103E60002544FF2A90464FEA410705F58D6540F04D
:103E70008680002B00F083809BF8A934202B6FD123
:103E80009BF8A834012B6BD00122D4F800801923B1
:103E90004FF400418BF8A8242846CDF80080FDF7A8
:103EA0006FFF00285CD10E9BCBF89C04CBF88C34C0
:103EB00022238BF8A93410238BF8AA34CBF8AC0456
:103EC000ABF89294BBF892349BB2FF2B00F21081B6
:103ED000BBF89234DBF868149BB2A0484A68ABF890
:103EE0009034DBB2024047EA034313439C4A1A432F
:103EF0004A604FF0580909FB0649B9F892349BB261
:103F0000002B00F08481D9F868349A69520700F1D7
:103F1000318142460A212846FDF7B0FE002840F0D4
:103F2000F480D9F868349A69910640F1F9809A6969
:103F30009A6912F0100200F0F18010222021894DC0
:103F4000DA610422C9F8AC24D9615A682A405A605F
:103F500089F8A91489F8A80489F8AA0422689B6939
:103F6000B4F86C35304601339BB2A4F86C35FFF7DA
:103F70008DFB4FF0000A504605B0BDE8F08F4FF0C2
:103F8000580B0BFB064B9BF8A934202BE8D10E9B5A
:103F9000002B00F0A8809BF8A834012BE0D0236808
:103FA00001224FF4004128468BF8A8240393009384
:103FB0001923FDF7E5FE0028D2D12223DBF868148F
:103FC0000E9A8BF8A9344023CBF88C248BF8AA34B2
:103FD000CBF8AC04ABF89294DFF880914A68CBF848
:103FE0009C04284602EA09023A4342F490324A60AD
:103FF000039970F081FD0246002840F0348140238F
:1040000028461946DBF86834C3F82880039B0093E0
:104010000A23FDF7B5FE002840F02581BBF8923455
:104020009BB2FF2B40F22681DBF86814FF234E4A37
:10403000ABF890344B6803EA09033B431A434A60E8
:104040004FF05808B946039F08FB064805E0B8F84A
:1040500092349BB2002B00F01F810A23002204211E
:1040600028460097FDF78CFE00287FF479AFD8F83A
:104070006834596AD8F88C341970B8F89214D8F8A2
:104080008C340139013389B2C8F88C34B8F89034D3
:10409000A8F89214013BB8F892149BB289B2A8F820
:1040A00090340029D3D0002BD1D102460A2380219D
:1040B00028460097FDF764FEFF2200287FF450AFEA
:1040C000B8F892349BB2934240F2BB80D8F868149F
:1040D000A8F890244B68254A1340254A43EA09036F
:1040E0001A434A60B3E74FF40073CBF8AC3437E7B8
:1040F000DBF86814FF231948ABF890344B681A4A70
:1041000003403B431A434A60F3E6582303FB06434C
:10411000D3F868349A6922689B6921E7C9F8AC240E
:104120002268A2EB08020A2A7FF6EFAE9A6912F023
:1041300004027FF4EAAE582101FB0641D1F8AC0439
:1041400081F8A824202240F02000C1F8AC0481F8B6
:10415000A9249B6904E700BF002D0024009800FCFF
:104160000024000200E800FE0024FF01009C00FC87
:104170000000FF015A6AD9F88C341A70B9F89234E9
:10418000D9F88C24013B01329BB2C9F88C24A9F8E0
:104190009234B9F89034B9F89224013B92B29BB2B0
:1041A000A9F89034002A3FF4A8AE002B7FF4A5AE06
:1041B0000A23002280212846CDF80080FDF7E0FD8B
:1041C00000287FF4CDAEB9F892349BB2FF2B0CD906
:1041D000D9F86814FF233B48A9F890344B683A4A51
:1041E00003403B431A434A6087E6B9F89234D9F852
:1041F00068149BB233484A68A9F89034DBB2024095
:1042000047EA0343134343F000734B6075E64146AE
:10421000284670F043FC00287FF4A2AED9F8683439
:1042200020212A4DD9615A682A405A6089F8A91478
:1042300089F8AA045822002302FB064484F8A83413
:1042400099E6B8F89234D8F868249BB21D485168B2
:10425000A8F89034DBB2014049EA03430B4343F032
:1042600000735360F3E65823002203FB064383F8F0
:10427000A82475E6BBF89234DBF868149BB24A6850
:10428000ABF89034DBB202EA090247EA0343134376
:104290000F4A1A434A60D3E60399284670F0FEFBA2
:1042A000034600287FF45CAED8F868242020074D30
:1042B000D06151682940516088F8A90488F8AA346F
:1042C000B8E700BF009C00FC0000FF0100E800FE12
:1042D000002400020348D0F8D8300BB1CC30184786
:1042E000704700BF000000240348D0F8F8300BB13D
:1042F000EC301847704700BF000000240348D0F896
:10430000183113B100F5867018477047000000247B
:104310000348D0F8383113B100F59670184770474C
:10432000000000240348D0F8583113B100F5A670FE
:1043300018477047000000240348D0F8783113B1C3
:1043400000F5B67018477047000000240348D0F805
:10435000983113B100F5C67018477047000000246B
:104360000348D0F8B83113B100F5D670184770473C
:10437000000000240348D0F8D83113B100F5E670EE
:1043800018477047000000240348D0F8F83113B1F3
:1043900000F5F67018477047000000240348D0F875
:1043A000183213B100F5037018477047000000245D
:1043B0000348D0F8383213B100F50B701847704736
:1043C000000000240348D0F8583213B100F51370F0
:1043D00018477047000000240348D0F8783213B122
:1043E00000F51B7018477047000000240348D0F800
:1043F000983213B100F5237018477047000000246D
:104400000348D0F8B83213B100F52B701847704745
:104410000000002410B41C46436884466FF30F0369
:1044200023434360036843F001030360036843F4DC
:1044300000730360002C3AD040F2E930DCF814300D
:104440009B0748D5002A49D012F8013B40F2E930D9
:104450008CF82030DCF81430DB0720D40138F9D197
:10446000214B9C450CD0A3F578439C4538D003F5EF
:1044700080639C4536D003F578439C450BD10320DF
:104480001A4A00EB400002EBC002B2F8E0320133FE
:104490009BB2A2F8E03200205DF8044B70479CF814
:1044A0003000C0B209B101F8010B013CC4D1DCF805
:1044B00014301B07FBD5DCF8183001205DF8044BE5
:1044C00043F01003CCF81830DCF8003023F001037F
:1044D000CCF8003070470138B0D1C1E7FF23B5E711
:1044E0000120CDE70220CBE700300140000000248E
:1044F00008B5204B98420ED003F5806398420AD04D
:104500001D4A03F58043984218BF904203D003F53B
:10451000806398421BD1FDF797FC1849184BCA6974
:10452000C969C2F30222C1F302211A4492F8302071
:1045300002F01F02D040114A1269C2F3C03241EAB0
:10454000C202134493F8583003FB00F008BDFDF796
:104550007BFC0A490A4BCA69C969C2F3021CC1F350
:10456000021103EB0C0292F8302002F01F02D0403F
:10457000E1E700BF00000140004001400044025854
:10458000A0350C08024B0348D3F87015FCF7C4BFE4
:10459000002D002400000140034B4FF08040D3F871
:1045A0007415FCF7B9BF00BF002D0024024B03486F
:1045B000D3F87815FCF7B0BF002D002400040040AC
:1045C000024B0348D3F87C15FCF7A6BF002D00244E
:1045D00000080040024B0348D3F88015FCF79CBF4D
:1045E000002D0024000C0040024B0348D3F88C152A
:1045F000FCF792BF002D002400040140024B034849
:10460000D3F89C15FCF788BF002D0024001800404B
:10461000024B0348D3F8A815FCF77EBF002D0024F9
:1046200000400140024B0348D3F8AC15FCF774BFBF
:10463000002D002400440140024B0348D3F8B0157C
:10464000FCF76ABF002D00240048014010B5064C5D
:104650000648D4F88C15FCF75FFFD4F8A015044881
:10466000BDE81040FCF758BF002D002400040140B5
:10467000001C004010B5064C0648D4F88C15FCF719
:104680004BFFD4F8A4150448BDE81040FCF744BF24
:10469000002D00240004014000200040BFF34F8F94
:1046A0000549064BCA6802F4E0621343CB60BFF3CE
:1046B0004F8F00BFFDE700BF00ED00E00400FA05EA
:1046C0000021012008B50DF019FA72B6FFF7E6FFD8
:1046D0002DE9F043BFB0BFF35F8F9C4C0023626AAB
:1046E00022F480326262C4F894309DF843109DF841
:1046F000445009069DF842200F9841EA057141EAAD
:10470000C2419DF8452041EA82419DF8462041EA98
:1047100042419DF8472041EA02419DF8412041EA8B
:1047200002219DF8402041EA4201C4F8983001334B
:10473000D4F8A020112B22F00102C4F8A020C4F864
:104740009C00C4F8A010F0D10523C4F89430636A2B
:1047500043F480336362BFF34F8FBFF36F8F7C48A6
:104760007C4A7D49121A7CF091FCD4F888107B4B6E
:104770000022012041F47001C4F8881018601A6109
:10478000196841F0800119601968014319601968BE
:1047900041F480311960196841F4805119609A61BF
:1047A000DA611A629A62DA621A635A639A63DA63A6
:1047B0001A645A64196821F4802119601A664FF04E
:1047C00000636749C1F80801A36075F02BF9654AD9
:1047D000D36813F0040FD36840F0A380624B00212C
:1047E000604A0591D96A21F00101D962DB6A03F0C0
:1047F00001030593936943F440439361936903F480
:1048000040430593059B93699E04FCD54C220021EF
:104810000EA8564C7DF062FD554A42F20303A4F106
:1048200010011268B3EB124F4FF000024FF0040377
:1048300008BF0C460892E268A370002A4CD1494A8E
:10484000494B916941F440419161926902F44042BF
:104850000892DA6A42F00102DA62DB6A03F00103CD
:104860000893089B3F4A93699D04FCD53B4B4FF44A
:10487000403540480321D3F8E02042F08002C3F8DD
:10488000E0200122D3F8E03003F080030793079B78
:1048900085610D9BCDE90013002374F071FF0223A5
:1048A00001204FF48031A288CDE9173304231993F6
:1048B000A379CDE90E01E079217A1C900EA81D9113
:1048C000CDE91A2308220023CDE91E23FBF7CAFFF6
:1048D000032838D0A0B1FEE7234BD96A21F00101AB
:1048E000D962DB6A1F4903F0010308938B6923F443
:1048F000404313438B618B6903F440430893B0E753
:104900001D4B1A6812F00E0F3AD11A6822F00F02EE
:1049100042F002021A601B6803F00F03022B2FD033
:10492000FEE723F00703154C43F00203D360216830
:1049300005E023685B1AB3F57A7F3FF64FAF536803
:104940009F04F6D54AE7FFF7BBFE00BF00ED00E08D
:10495000000000004038000040570D080044025895
:104960000080005100480258000400583C03002415
:104970000010005C001C025800200052002D002492
:104980006D4A936903F070033F2B05D8936923F0B8
:10499000700343F040039361674AD36903F07003E7
:1049A0003F2B05D8D36923F0700343F04003D36154
:1049B000614AD36903F4E063B3F5806F05D2D3692C
:1049C00023F4E06343F48063D3615B4A136A03F02A
:1049D00070033F2B05D8136A23F0700343F04003A4
:1049E0001362554B9A69140705D49A6922F00F0295
:1049F00042F008029A61504A936923F4706393610C
:104A0000136898018CD5136941F288314B4C23F01F
:104A1000070343F003031361206804E023681B1AB3
:104A20008B4200F2AA81136903F03803182BF5D1E9
:104A3000936903F00F03082B05D9936923F00F0343
:104A400043F0080393613E4A136803F00F03022BFF
:104A50000BD9136823F00F0343F0020313601368AC
:104A600003F00F03022B00D05AE7334A936903F097
:104A70007003402B05D9936923F0700343F0400382
:104A800093612D4AD36903F07003402B05D9D36994
:104A900023F0700343F04003D361274AD36903F442
:104AA000E063B3F5806F05D9D36923F4E06343F481
:104AB0008063D361204A136A03F07003402B00F235
:104AC00054811D4EFDF79EF91E4DB269B369C2F3C4
:104AD00003221D4B134493F8303003F01F0320FAD8
:104AE00003F3D5F8A4002B60FDF71AF8002840F076
:104AF00045811023159017900EA80E93FBF7B2FE78
:104B0000002840F031813368104A43F0800333605D
:104B1000D6F8F43043F00203C6F8F430D6F8F43097
:104B200003F002030493049B136A43F0010313622E
:104B3000074B216811E000BF00440258002D0024FB
:104B40000020005200000024A0350C08000400588A
:104B500080380100013B3FF4F6AE22689142F9D063
:104B6000226823689B1A0A2BFBD900214FF480206E
:104B7000A64C4FF440130026002730934FF0020854
:104B8000CDE90E010EA873F021FFD4F8EC30A04956
:104B900041F2030243F002030EA8C4F8EC30D4F84B
:104BA000EC3003F002030393039BD4F8943043F0FA
:104BB0000203C4F89430D4F8943023F00203C4F80C
:104BC00094300B689349B2EB134F934B934A28BF31
:104BD0000A465A601A6822F47C5242F400521A6063
:104BE0001A6842F060021A6003220023CDE92C67A4
:104BF000CDE90E2373F0EAFE4FF4E04200230EA845
:104C0000CDE9266700270326CDE90E233A9773F0F6
:104C1000DDFE182200230EA82F973497CDE90E232E
:104C200073F0D4FE4FF4803200230EA81797CDE91D
:104C30000E2305224FF4FA73CDE9102304231493B5
:104C40004FF48033CDE915772293CDE9128673F0C6
:104C5000BDFED4F8E03042464FF4807143F00103CA
:104C60006F48C4F8E030D4F8E03003F00103099352
:104C7000099B3B46CDE9006774F082FD23694246FB
:104C8000684823F0FE7343F088732361D4F8E03062
:104C900043F00403C4F8E030D4F8E03003F0040338
:104CA00006933B4606994FF40071CDE9006774F016
:104CB00067FD236923F07E4343F0FC432361FDF746
:104CC000A1F82860BFF35F8F574C3E46574D4FF019
:104CD0000108636A23F480336362C4F8947028E0A7
:104CE000002A49D02F686B7A103515F8061C1B0670
:104CF00043EA017343EA420315F8052C43EA824371
:104D000015F8042C43EA424315F8032CC4F89860C4
:104D1000013643EA0243D4F8A020032E43F00103F6
:104D200022F00102C4F8A020C4F89C70C4F8A0309E
:104D300025D06B682A7A002BD2D02F68002AD2D1D6
:104D400027F01F02A3EB0209B9F1200F38BF4FF083
:104D5000200948467CF06CF9421E08FA02F18945A8
:104D600008BF0246D2B2BEE7FEE7136A23F0700323
:104D700043F040031362A4E6FEE7D1E5D0E5052346
:104D8000C4F89430636A43F480336362BFF34F8F97
:104D9000BFF36F8FBFF34F8FBFF36F8F0022C4F845
:104DA0005022BFF34F8FBFF36F8F636943F400331B
:104DB0006361BFF34F8FBFF36F8FC4F88420BFF3DD
:104DC0004F8FD4F8805043F6E0761749C5F34E3440
:104DD000C5F3C905640104EA06002B4640EA837264
:104DE000013BC1F86022F9D2203C14F1200FF2D12E
:104DF000BFF34F8F4B6943F480334B61BFF34F8F49
:104E0000BFF36F8F3FB0BDE8F08300BF004402588E
:104E10000010005C7FBB2200008400407FBB22307A
:104E2000000002580008025800ED00E04C03002486
:104E30003F4B586D012830B585B06ED03D494FF6D7
:104E4000FF003D4ACC683D4B04403D4D3D48224368
:104E5000CA605A6FC5F8A825D3F8F42042F00202C0
:104E6000C3F8F420D3F8F42002F002020392039A6C
:104E7000D3F8DC2042F00052C3F8DC20D3F8DC2069
:104E800002F000520292029AD3F8DC2042F08042F3
:104E9000C3F8DC20D3F8DC2002F080420192019AB2
:104EA000D3F8DC2042F00042C3F8DC20D3F8DC2049
:104EB000036802F0004224480092009AD1F8FC40B6
:104EC000224A44F08074C1F8FC40A2FB0342002453
:104ED000920CC5F8AC251E4AC0F8B02F1D4A44609C
:104EE000A2FB032302689B0942F00102013B02601E
:104EF000B3F1807F07D34FF0E022136943F004033E
:104F0000136105B030BD4FF0E022F020536107235C
:104F100081F8230094611361EDE700210CF0EEFDB0
:104F20000D4B1A6882F308885B689847FEE700BF5C
:104F30000040005800ED00E00003FA05004402586C
:104F4000002D002400000024001000E083DE1B433D
:104F500055CEACC5D34D62100098F01F2DE9F84333
:104F6000374E984606EB80039C6E002C65D004F10A
:104F7000D20388360546B4F8D202A36104F5E9737A
:104F800066601746E3614FF48073261DE160C4E953
:104F900004332368C4F8CC30A36300284AD194F8C2
:104FA000D1000AF02FFA18F0080F94F8D09034D1FD
:104FB000BA0723D4FB0711D4052194F8D6026FF069
:104FC0001DFE94F8D63201221E4903F01F005B0932
:104FD000824041F823203046BDE8F8830135484639
:104FE0000AF010FAEDB218B140F206630572C38000
:104FF00094F8D42202210AF0E3F9DDE76B1CDBB25E
:1050000018B1037240F20653C38094F8D5220221EE
:105010000AF0D6F9FB07CFD5E0E70135EDB218B1BC
:1050200040F206730572C38094F8D52202210AF07B
:10503000C7F9C1E76FF07CFBB1E72646CBE700BFBD
:10504000A0350C0800E100E00148FDF759BD00BFA4
:10505000800300240148FDF753BD00BF580600241B
:105060000148FDF74DBD00BF300900240148FDF7A0
:1050700047BD00BF080C00240148FDF741BD00BF3B
:10508000E00E00240148FDF73BBD00BFB81100242D
:105090000148FDF735BD00BF9014002470B52422EF
:1050A000456B00238168C0F8BC2004462A6800F1E3
:1050B000340622F001022A602B606B60AB608279BB
:1050C000C0F8C43080F8B830C0F8BC30C364C0F851
:1050D000C0304365C0F8A030C0F8A43093028163AB
:1050E00003F480534179C363130303F4005303644F
:1050F000130203F480634364C36D01F00200C90727
:1051000045D400287ED1A06412F0080254D0D4F80F
:10511000BC20002A00F08A802422C4F8BC202A681F
:1051200022F001022A60002B7CD13046FCF7FEFF02
:10513000012812D06B68304623F490436B60AB6853
:1051400023F02203AB60AB6843F00803AB602B682D
:1051500043F001032B6073F0B9FA6279D6070DD5DD
:10516000D4F8C830196841F480711960996841F029
:1051700001019960196841F020011960950705D572
:10518000D4F8C820136843F08003136070BD042175
:10519000A16470B30C21D007A164B5D54FF4803160
:1051A00043F00203616643F001034FF40031E3650D
:1051B000216612F00802AAD1D4F8BC1009B194F803
:1051C000B82084F8B8202422C4F8BC202A6822F031
:1051D00001022A6013BB3046FCF7A8FF0128BCD0AF
:1051E0006B68304623F490436B60AB6823F02A036E
:1051F000ACE7D10788D543F002034FF48031E36573
:10520000616681E70821A164D1077FF57DAF43F096
:1052100001034FF40031E3652166CAE73046FBF72E
:1052200055FED8E73046FBF751FE7EE784F8B820FC
:1052300072E700BF816031E741712FE781712DE78F
:105240002DE9F843434D3C20434C05F1BC02B5F831
:10525000C230C4F8B025A4F8BC35B5F8C620B5F8FE
:10526000CA30A4F8BE25A4F8B4350AF0CBF8074636
:1052700042200AF0C7F8064638200AF0C3F88146F3
:105280001FB10D23FB8000233B721EB10D23F38061
:1052900000233372B9F1000F05D00D23A9F80630B1
:1052A000002389F80830B5F8CE303920A4F8B63597
:1052B000B5F8D230A4F8B835B5F8D630A4F8BA3578
:1052C0000AF0A0F880463A200AF09CF805463B20F8
:1052D0000AF098F80446B8F1000F05D00D23A8F89D
:1052E0000630002388F808301DB10D23EB80002321
:1052F0002B721CB10D23E38000232372484608F073
:105300004DFB012148460AF039F8404608F046FBBB
:10531000284608F043FB204608F040FB40460121A8
:105320000AF02CF8284601210AF028F8012120462D
:105330000AF024F8384608F031FB304608F02EFB1E
:10534000384601210AF01AF830460121BDE8F84339
:105350000AF014B8A0350C08002D002438B5134D00
:1053600041F20D13124941F28832D5F80406D5F8FE
:10537000C0450004A060E068014020460B430D21B9
:10538000E360FDF7F3FE38B1D5F8F42503460020BD
:105390001343C5F8F43538BD606900F4F050A0F54A
:1053A0000060B0FA80F0400938BD00BF002D002435
:1053B000C0E0FEFF2DE9F04FA64D7C2200219BB0FE
:1053C00005F5B86318467CF089FF4FF400310346B9
:1053D000D5F8B0454FF48030226819610221C5F834
:1053E000C405596195F8F035C5F8C025002B00F0CB
:1053F00088800422984B85F8F025DA6C1B68D60368
:105400000DD5180100F1D98001224FF0006385F815
:10541000F025C5F8F43501201BB0BDE8F08F9C01E4
:10542000F2D50AAB18460193FDF780F80B990029D5
:10543000EAD0D5F8C0450A0A884B6668A3FB023259
:10544000874B884F33401009B94243EA1213636017
:10545000236843F00303236040F2F6804300824A4E
:10546000B1FBF3F3B2FBF3F2296802322B685B1A4B
:105470009A42FBD800237D4A0493A3607C4BE168E9
:1054800017680B4043F48053E3607A4BA3FB073764
:1054900041F288337F0A03FB07F73B46002B00F0FD
:1054A000C880626B013B1106F8D5734B704AA36349
:1054B0004FF4D573A360E3681A4041F20813134315
:1054C000E3604FB13B46626B12F0450F02D092048D
:1054D00040F1DA80013BF6D10023C5F8FC35A3602A
:1054E000634BE268134043F48053E3603B46002B78
:1054F00000F09F80626B013B1106F8D55E4BA36301
:10550000E1E05E4B9A425FD05D4B9A4200F00D8124
:1055100095F8BC0509F076FF834695F8BE0509F0BD
:1055200071FF824695F8B40509F06CFF814695F845
:10553000B60509F067FF804695F8B80509F062FFE7
:10554000074695F8BA0509F05DFF95F8BD250646B2
:105550000E21584609F034FF504695F8BF250E211C
:1055600009F02EFF484695F8B5250E2109F028FFD1
:10557000404695F8B7250E2109F022FF95F8B92588
:1055800038460E2109F01CFF0E2195F8BB25304648
:1055900009F016FF0221B4F904006FF02FFBB4F9F3
:1055A0000430002BFFF625AF03F01F0001225B093A
:1055B0003449824041F823201BE70AAB1846019387
:1055C000FCF780FC0C9932E7234BD3F8D42022F46B
:1055D0008032C3F8D420D3F8D4200243C3F8D420B7
:1055E000D3F8D42002400392039ADA6F0243DA67B9
:1055F000DA6F22F48032DA678AE72A684FEA134EBC
:10560000A2EB09027346824213D8002B40F032818C
:10561000C4F808E0E36803EA0A030B43E3603B468F
:10562000626B12F0450F02D0920440F1F180013B11
:10563000F6D14FF00040012385F8F035D5F8F43568
:105640000343C5F8F435E6E6074AB2FBF1F22968F0
:105650000BE700BF002D002400440258598B4F0176
:10566000002CC0FFFF340C001021010000000024BA
:10567000C0E0FEFFD34D6210C50020000070005254
:105680000024024800E100E0636B5B0700F16F83D8
:10569000636BDE0769D4636B580601D54023A363AF
