:020000040800F2
:10000000000001103D800708A1270008ED570208F5
:10001000DD800708DD800708DD800708000000009C
:100020000000000000000000000000009D3B0008F0
:10003000A13B000800000000A53B0008BDDB000854
:10004000DD800708DD800708DD800708DD80070800
:10005000DD800708DD800708B1A70008B5A7000804
:10006000DD800708B9A70008BDA70008052C000817
:10007000192C00082D2C0008412C0008552C0008D4
:10008000692C00087D2C0008DD800708DD8007084A
:10009000DD800708DD800708DD800708C1A70008AC
:1000A000B12A0008D92A0008012B00089D2A00085F
:1000B000292B00083D2B0008512B0008DD80070884
:1000C000DD800708DD800708DD800708DD80070880
:1000D000DD800708512A00085D2A0008692A000807
:1000E000C5A70008DD800708A93B00088D2B000884
:1000F000B52B0008DD2B0008792B0008912C000897
:10010000DD800708DD800708652B0008DD80070813
:10011000752A0008812A0008DD800708DD800708AD
:10012000A52C0008B92C0008C92C0008D92C0008FF
:10013000E92C0008DD800708DD800708DD8007085E
:10014000DD800708DD800708DD800708F53B000833
:10015000F92C00080D2D0008212D00088D2A00081B
:10016000DD800708DD800708DD800708DD800708DF
:10017000DD800708DD800708DD800708DD800708CF
:08018000DD800708DD8007089F
:10019000D0E907239A423CBFC1685218D01A704771
:1001A000D0E9092300699A4238BF1218D31A0138DE
:1001B000C01A7047D0E90902101AB0FA80F040095D
:1001C000704700BF0246036A4069D168C05C0133D2
:1001D0008B4228BF00231362704700BF436A8269C5
:1001E000D154436A0169426B01338B4228BF00231B
:1001F0004362D36843F08003D3607047436B188831
:1002000010F0100002D01A889B880120704700BFB0
:10021000436B99891A88890610B504460AD592B2AB
:10022000900607D5E26A002A2AD09888216B80B20E
:100230009047636B99891A88090692B210D5100607
:100240000ED5D4E909128A4215D0A1692069895CCA
:100250000132C9B29980B2FBF0F100FB1122A26217
:10026000998A1A88C90592B204D5D20744BF4FF6BD
:10027000F7721A8010BDDA6822F08002DA60EFE7C8
:100280009B88E2696169DBB28B54E269E168636B68
:100290000132B2FBF1F001FB1022E261CAE700BFBC
:1002A000036942681F2B10B40AD95468A3F1200CCB
:1002B000202101FA0CF1214207D15DF8044B70476F
:1002C0001468202199402142F7D081690024C86830
:1002D0000C7480684C68016821F00101016020689D
:1002E00094F805C00C4C818934F81C4089B221EA8D
:1002F00004011F2B818107D9A3F1200120238B400A
:100300005DF8044BD3607047202101FA03F35DF8D8
:10031000044B9360704700BFE0F2070882B00922E7
:10032000274B8DF80720DA68D00319D4DA68D10694
:1003300040D4DA68D20541D4DA6812F0E00F3BD13C
:10034000DB6813F0020F0CBF092308238DF8073078
:100350009DF80730012B0AD09DF8070002B07047C6
:1003600001238DF807309DF80730012BF4D1144A92
:1003700012E0D368DB0519D4D36813F0E00F17D16E
:10038000D36813F0020F0CBF092308238DF8073040
:100390009DF80730012BDFD1D168C8034FF001036E
:1003A000F4D4D368D906E4D50623EFE70223EDE7BA
:1003B0000723EBE70623D4E70723D2E70223D0E79E
:1003C000003C0240704700BF704700BF704700BF4D
:1003D00001207047034BD3E90003C01AC0F30A00A1
:1003E000704700BF78230020054AD2E900139942E4
:1003F000FDD0D1180133C3F30A03087A5360704764
:1004000078230020064BD3F8080800B97047D3F8CA
:100410000808A0F10500B0FA80F04009704700BF5D
:1004200078230020012380F849307047044BD3E93A
:100430000003C01AC0F30A00C0F50060704700BF97
:100440007823002010B5D0F8E83504461B6998479A
:10045000032384F81231002010BD00BF08B5042228
:1004600090F81211D0F8E83580F8131180F81221B5
:10047000DB689847002008BD08B5D0F8E435DB6993
:1004800003B19847002008BD08B5D0F8E4351B6AD1
:100490009847002008BD00BF08B5D0F8E4355B6A76
:1004A0009847002008BD00BF70B5037805460E468A
:1004B0001446DBB1013076F03DFF431CDBB2013363
:1004C0005B00DAB223800323327073702C7864B13E
:1004D0002846022300215A1CD2B2F454B15410F819
:1004E000014F0233DBB2002CF5D170BD022213465E
:1004F000E8E700BF10B5074C2068FF2808D0064980
:10050000D1F80C2801F5016100F082F8FF23236087
:10051000002010BD00000020782300204323014864
:100520000B80704704000020122301480B807047A5
:1005300048000020042301480B8070475C00002025
:1005400010B5044C04480A462146FFF7ADFF20468B
:1005500010BD00BF902B00205496080810B5044C25
:1005600004480A462146FFF79FFF204610BD00BF02
:10057000902B00206496080810B5044C04480A46E5
:100580002146FFF791FF204610BD00BF902B0020B1
:100590006C96080810B5044C04480A462146FFF73B
:1005A00083FF204610BD00BF902B002078960808DE
:1005B00010B5044C04480A462146FFF775FF204653
:1005C00010BD00BF902B002084960808704700BF24
:1005D000704700BF704700BF704700BF704700BF43
:1005E000704700BF704700BF044B00200522C3F8CE
:1005F0000828C3F81809C3F81C097047782300209D
:10060000024B0020C3F80808704700BF7823002081
:10061000212838B50C4625D0222816D0202812D102
:1006200089B1072A0FD1174DD5F81C3913B10968C4
:10063000002098472168A288A379C5F82019A5F859
:10064000242985F82639002038BD0029FBD0022A4C
:10065000F9D10C4BD3F81839002BF4D009880020BD
:100660009847F0E70029EED0072AECD1054BD3F8E4
:100670002019B3F8242993F826392160A280A371A8
:10068000E1E700BF7823002010B4114CD4E9003218
:100690009A1AC2F30A020A44B2F5006F13D871B174
:1006A00001444A1E013810F801CFE118904203F1CD
:1006B000010381F808C0C3F30A03F4D123600020CA
:1006C0005DF8044B704702205DF8044B704700BF93
:1006D000782300201D49D1F87C391A79022A00D0EC
:1006E000704710B41A4C93F9102002EB820204EB0D
:1006F0008202126E1089800708D51289100605D46F
:100700009A6892070BD45DF8044B704700BFD1F88C
:100710007C391A79022AE6D05DF8044B7047D1F88B
:1007200080190C480C4A4FF4FA7404FB01F1A2FB47
:100730000121446889094268121B9142FBD25B691E
:10074000002BE0D01A689B881383DCE77823002015
:1007500000000020001000E0D34D6210034B93F81E
:100760004C09003818BF0120704700BF78230020D3
:100770000E4BD3F8782942B1106891880269114272
:1007800003D1002283F84C29704793F840290132A5
:10079000D2B2072A83F84029F3D8D3F88429C3F8C2
:1007A0003C29012283F84C29704700BF78230020A0
:1007B000034B93F84C09032894BF00200120704795
:1007C0007823002000487047C82C002030B4184B14
:1007D00000209C7B14B11D688D4206D00130082892
:1007E00003F11003F5D130BC7047D2B1114B03EBCC
:1007F00040218A4211D0104B93F8B42112B9012242
:1008000083F8B4210D4B01225A7000F5817003EB7F
:10081000001301229A7130BC7047022CEBD1183BB7
:10082000F3E7064B00F5817003EB00139A71DAE7EA
:10083000C85F0020C84F0020B05F0020B04F0020EC
:1008400030B41D4C002384F8A03004F1180004E0FB
:100850000133082B00F110001ED005688D42F7D13E
:1008600090F80EC0BCF1030FF2D1BAB1134901EBFD
:100870004320824209D094F8B42112B9012284F8AD
:10088000B4210F4901224A7000E0183903F5817341
:1008900001EB031101238B7130BC70470849D4F878
:1008A0009C2003F5817301EB03130132042199713C
:1008B000C4F89C20F0E700BFB05F0020C84F0020C4
:1008C000B04F0020A8B183681BB10E4B07229A706D
:1008D00070470C4A1178D36003294FF0040014BF0D
:1008E0004FF480718021C2E901111361137590707A
:1008F0007047044A02F580510123537081F8B431E6
:10090000704700BFB04F002010B58121044675F03C
:10091000AFFA2046012175F0ABFA2046822175F02E
:10092000A7FAFFF76DFE002010BD00BF034610B40C
:10093000D9691A69002040F20114A3F84441086003
:10094000D1699C6D21F002014FF0010CD161A3F837
:100950009CC32060D369044923F4003381F88809DB
:100960005DF8044BD36170477823002020230148B1
:100970000B807047B0000020122301480B807047A5
:10098000D0000020042301480B807047E4000020C1
:100990000A4608B5054920B90548FFF785FD034813
:1009A00008BD0448FFF780FD004808BD042D002065
:1009B00094960808AC96080810B5044C04480A46FA
:1009C0002146FFF771FD204610BD00BF042D002019
:1009D000C49608081C48D0F8E837D0F8EC2710B5C2
:1009E0009B184FF01A040C8001D1184810BD174A0B
:1009F000D0F8EA0702F1100411464FF0000E4FEA5A
:100A0000137CB3F1204F34BF0CF1300C0CF1370CD8
:100A100081F802C081F803E002318C424FEA0313EF
:100A2000EDD102F108040021030FB0F1204F34BFD3
:100A3000303337339374D174023294424FEA00104A
:100A4000F2D1024810BD00BF00F0FF1FE8000020F7
:100A500010B5044C04480A462146FFF725FD204600
:100A600010BD00BF042D0020D896080810B5044C16
:100A700004480A462146FFF717FD204610BD00BF77
:100A8000042D0020E496080810B50E4C0E4BD4F847
:100A9000481CB4F84C0C088303F58272C4F8D82CB7
:100AA000D3F804319847D4F8D83C002BFBD01B690D
:100AB00098470028F7D0D4F8483CB4F84C2C5A8317
:100AC000002010BD782300200000002038B5084B1E
:100AD000D3F8D83C53B1DB6914460D4698474FF420
:100AE000007302682A600020236038BD1B68FFDEA7
:100AF0007823002008B5064BD3F8D83C23B11B69F6
:100B00009847013840B208BD4FF0FF3008BD00BF24
:100B100078230020002070472DE9F041184CD4F8CC
:100B20003C0C1546B4F8402C428323B30E4603EB2D
:100B3000050804E0D4F8D83C0BB31B699847D4F8F7
:100B4000D81CE1B100234F681A4631462846B84701
:100B50000028EFD0D4F8D83C002BFBD01B69984775
:100B60000028F7D00135A84506F50076E7D1D4F87E
:100B70003C0CB4F8402C02830020BDE8F081FEE775
:100B8000782300202DE9F041184CD4F83C0C154690
:100B9000B4F8402C428323B30E4603EB050801E072
:100BA0001B699847D4F8D81C51B10023CF681A4666
:100BB00031462846B847D4F8D83C10B1002BEFD1C5
:100BC000002313B11B69984710B9D4F8D83CF8E753
:100BD0000135454506F50076E4D1D4F83C0CB4F86F
:100BE000402C02830020BDE8F08100BF7823002064
:100BF000002070472DE9F0411F4E80460B4696F8C5
:100C0000DC2C002AFBD19BB343445F1E08F1FF3864
:100C1000D6F8E03CD6F8E42C0133C3F30A039A4239
:100C200016D10DF017F804460D460DF013F8001B11
:100C300061EB0501B0F57A7F71F10001F5D3D6F8CB
:100C4000E03CD6F8E42C0133C3F30A039342E8D026
:100C5000D6F8E02CD6F8E03C18F8011F32440133F6
:100C6000C3F30A03B84582F8E81CC6F8E03CCFD1CC
:100C70000020BDE8F08100BF7823002010B50A4CA9
:100C8000D4F8083803B910BDD4F80838052BFAD1C8
:100C9000002A0846D4F884391146F4DDFFF7AAFF8C
:100CA000D4F8843910BD00BF7823002090F8482084
:100CB000531C0244DBB280F8483082F8341090F8BC
:100CC000492052B1132B0CD9002280F8482010B5CE
:100CD0000B4CD4F808282AB910BD80F84820002B06
:100CE000F5D17047D4F80828052AF5D119463430D3
:100CF000D4F88439FFF77EFFD4F8843910BD00BFE3
:100D00007823002090F848100023A0F8483001B95B
:100D1000704710B5084CD4F808381BB1D4F808381F
:100D2000052B00D010BD3430D4F88439FFF762FFB2
:100D3000D4F8843910BD00BF782300202DE9F04796
:100D4000534E1F4606EB80039C68002C00F09B80EE
:100D500004F13E03A36104F59F73E3614FF48073D4
:100D6000C4E904332836236866600546E16094F8D8
:100D70003D00A363914609F0CDFD804694F84402FE
:100D800094F83CA0261D002851D194F8450250BB90
:100D9000D4F840326BBB3A0731D419F0020F49D175
:100DA00019F0010F5AD1D4F8483294F9471294F847
:100DB00047221B010029DBB20DDB3649881880F879
:100DC00000335009012302F01F02934041F8203004
:100DD0003046BDE8F087304902F00F02114430463A
:100DE0000B76BDE8F08772F0B1F9D4F84032002BF1
:100DF000D1D02A4A116B0B4313633A07CDD5013585
:100E0000EDB2B8F1000F05D040F2067388F8085033
:100E1000A8F80630FB0694F846222FD417F0200FCE
:100E20000CBF32211221404609F038FDBBE772F0B9
:100E30008DF9AAE76B1CDBB2B8F1000F05D088F87A
:100E4000083040F20653A8F8063094F8462240468F
:100E5000022109F023FD19F0010FA4D0504609F03A
:100E600059FD0135EDB218B140F20663C380057239
:100E700094F84622022109F011FD94E70221404630
:100E800009F00CFD8FE726463046BDE8F08700BF2D
:100E9000E0F2070800E100E0FCEC00E0003802406E
:100EA0002DE9F047038A8489A4B21C4082B047D060
:100EB000814688464FF0004501F14C0701F13406A8
:100EC000B4FA84F325FA03F2D24391B2A9F81010D0
:100ED00014401B3BB8F1000F5FD0042B2ED8DFE885
:100EE00003F052483D320300D8F80C30D9F82CA05A
:100EF00033B19B6823B11FFA8AF108F104009847C7
:100F0000D8F8243033B19B6823B11FFA8AF108F175
:100F10001C009847D8F83C3033B19B6823B11FFAC6
:100F20008AF108F134009847D8F8543033B19B68FF
:100F300023B11FFA8AF108F14C009847002CBFD169
:100F400002B0BDE8F087D8F80C30D9F834105B68EF
:100F500008F104009847002CB2D1F1E7D8F824300A
:100F6000D9F838105B6808F11C009847002CA7D10D
:100F7000E6E7D8F83C30D9F83C105B683046984733
:100F8000002C9DD1DCE7D8F85430D9F840105B68CC
:100F900038469847002C93D1D2E7042B07D8DFE8D6
:100FA00003F01903140F0A00D9F83C300193019B98
:100FB000002C85D1C4E7D9F82C300193019BF7E7C9
:100FC000D9F834300193019BF2E7D9F83830019316
:100FD000019BEDE7D9F840300193019BE8E700BFA2
:100FE000F8B5264C94F8DC2C012A034603D0022ADB
:100FF00009D00020F8BD224ED6F8F0538DB984F800
:10100000DC5C0020F8BD002540F20112C0E9545517
:10101000C0E95655A0F8442100F5A27175F024F8F6
:10102000EDE7402D20D94027D4F8E41C154AC3F839
:1010300058710A44C3E9542240F20112A3F8442132
:101040000022C3F85C2103F5A271184675F00CF874
:10105000D4F8E43C3B44ED1BC3F30A03C4F8E43C7E
:10106000C6F8F0530020F8BDAAB2402A01D02F469E
:10107000DAE7022284F8DC2CD5E700BF78230020D1
:10108000703400206030002001EB810138B500EBA6
:10109000C1010F4DB1F88C1304462846FFF7F4FA4E
:1010A000E378C4F8A853012083424FF000024FF0C8
:1010B0004001C4E9EC12A4F89C0304F567712046D2
:1010C00008BFC4F8AC5374F0CFFF002038BD00BF98
:1010D00064380020F8B52A4CD4F834340F2B04D0EF
:1010E0005A1CC4F834240020F8BD264D95F8DC3C89
:1010F0000022C4F83424002BF5D1D5F8E42CD5F81F
:10110000E03C9A42EFD0D5F8E42CD5F8E03C9A4286
:101110002DD8D5F8E06CD5F8E43CF61A402E2BD843
:10112000B3B2402B13BF3746402702230123D5F823
:10113000E42C85F8DC3C144BC0F858711344C0E92A
:10114000543340F20113A0F844310023C0F85C315D
:1011500000F5A27174F088FFD5F8E43C3B44F61B1F
:10116000C3F30A03C5F8E43CC4F8F063BBE7D5F861
:10117000E46CC6F50066D1E701234027D7E700BF3E
:1011800070340020782300206030002010B5324BEE
:1011900093F8442493F858C4D3F84034044613B168
:1011A00052EA0C0231D00123E06984F8463140F262
:1011B0000112A4F8442102682849002AA8BFC2F3FA
:1011C00080739B0301EA124143F020030B4363F356
:1011D0001F42BCF1020F026000D010BDE278204B2C
:1011E000C4F8A8331F200021C4E9EC01012A4FF004
:1011F0000101A4F89C1308BFC4F8AC3304F567716F
:101200002046BDE8104074F02FBF012174F0F6FDB8
:101210000122E06984F8462140F20113A4F8443128
:10122000016800290A460CDBC1F380730B4C9B0359
:1012300043F0200304EA11410B4363F31F420260B1
:1012400010BD064B03EA114343F4804343F02003EF
:1012500063F31F42026010BD70340020DFBFFFFF48
:10126000A83800202DE9F041B0F8CC15D0F8CE35E3
:10127000B0F8D255B0F8D085C0F84051012284B002
:1012800080F8112101F01F02012A044600F2CC5619
:10129000ADF80810C1F3072ECDF80A30ADF80E50A6
:1012A0004FEA134C51D0022A7746C9B29BB210D0F4
:1012B000002A55D1BEF1090F4BD8DFE81EF0890096
:1012C000AD004A00C8004A005C01DF004A0013017B
:1012D000330101F0600120295FFA8CF272D0012FF6
:1012E00000F0B881032F00F0A181AFBB90F812315C
:1012F000022B00F0E381032B2BD11CF0800F40F078
:10130000E98102EB820200EBC20393F87623003AF4
:1013100018BF0122C24D02234FF48071C4E94E333D
:1013200084F81131C4F83031A4F81C1105F58D632F
:101330000021C4F83411C4E94A3304F58E71204603
:10134000C5F8682474F02EFE06E090F81231032BE5
:101350000ED0204674F01AFD002004B0BDE8F081E4
:1013600001F0800174F04AFD002004B0BDE8F08176
:101370005FFA8CFCBCF1010FEBD8D0F8E43502A980
:101380009B689847BDF80E30002BE5D1C4E94A337D
:10139000C4E94C3304214FF4807284F81111A4F88D
:1013A0001C2104F58E71204674F0FCFD636D9D4A8E
:1013B0001A61E278012ACFD15E614FF0802219686C
:1013C0001A60C9E7D0F8E43502A99B689847C3E7DB
:1013D00090F81231023B012BBBD8914BD0F8182169
:1013E0000021C3F8601412B10222C3F860248E4AAF
:1013F00002234FF480700021C4E94C31A4F81C0191
:10140000C4E94E33C4E94A2284F8113104F58E71DF
:10141000204674F0C7FD9FE790F81221023A012A96
:1014200097D8012B98D1D0F8E43500259B68C0F8F7
:10143000185102A9984704224FF48073C4E94A5511
:10144000C4E94C5584F81121A4F81C31A9E7012BFB
:1014500000F03B81022B7FF47FAF5FFA8CF3002B0F
:101460007FF47AAF03694FEA1C22023A5B68032AD1
:1014700000F2BD81DFE802F0B6CED2D01E0A022E05
:10148000ADF8065000F08A81032E00F04E81012E47
:101490007FF45FAFD0F8EC3580781B680DF1060162
:1014A0009847BDF80630002B3FF456AFBDF80E202C
:1014B000002A3FF451AF934228BF13464FF4807285
:1014C0000221A4F81C210022C4E94A0084F8111169
:1014D000C4E94E33C4E94C3204F58E71204674F0F1
:1014E00061FD39E7012D7FF434AF90F81231022B02
:1014F00000F00881032B7FF42CAF4FF4807200F5CD
:1015000088730221A0F81C21002280F81111C0E983
:101510004E55C0E94A33C0E94C5200F58E7174F063
:1015200041FD19E7DDB23E4F012D87F859543FF6D2
:1015300010AF90F81231022B00F0D880032B7FF40B
:1015400008AF002D00F0358190F81011012910D05E
:10155000D0F8E4355B68984797F85914D4F8E43527
:1015600084F810111B6820469847D4F8E8359B682A
:10157000984700230AE758EA05027FF4EAAE90F89C
:10158000121103293FF4E5AE03F07F0580F81451F2
:101590000069114663F30A110368194304230160CB
:1015A00084F811314FF48073C4E94A22C4E94C2213
:1015B000A4F81C3104F58E71204674F0F3FC636DC1
:1015C000184A1A61E278012A06D0002D00F0FC804A
:1015D000022384F81231BFE65E614FF08022196861
:1015E0001A60F2E702210E4861F306130022C0F8E8
:1015F00064340423C4E94A22C4E94C2284F811313A
:1016000001224FF4807304F58E7184F81621A4F83A
:101610001C31C8E60321E6E70521E4E70421E2E7FF
:101620007034002018000860D038002090F81211A3
:10163000022943D003297FF48CAE23B9510602D08E
:10164000114674F0DBFBD4F8E4359B6802A9204610
:1016500098478EE790F8121102292FD003297FF4C2
:1016600078AE002B7FF478AE12F07F0181D01CF0B1
:10167000800F40F0AD8002EB820100EBC10181F8E8
:10168000763381F87533282381F8742303FB020332
:1016900000EB820193F87723496D0B68023A012A27
:1016A00023F400138CBFC3F30072012262F31C7396
:1016B000D4F8E4250B60936802A9C8E753063FF409
:1016C0004BAE114674F09AFB46E6D0F8E425C0F81C
:1016D0001831F0E702F07F0202EB820200EBC20356
:1016E00093F81E21003A18BF012213E6002D3FF4A3
:1016F000A2AE01210322D0F8E43580F8101180F861
:1017000012212FE73B4A80F811314FF480710023FA
:10171000A0F81C11C0E94E55C0E94A22C0E94C535B
:1017200000F58E7174F03EFC16E6DBB2052B3FF639
:1017300010AEDFE803F02B231B130B03D0F8EC35BE
:1017400080789B690DF106019847AAE6D0F8EC3540
:1017500080785B690DF106019847A2E6D0F8EC3578
:1017600080781B690DF1060198479AE6D0F8EC35B0
:101770008078DB680DF10601984792E6D0F8EC35E9
:1017800080789B680DF1060198478AE6D0F8EC3521
:1017900080785B680DF10601984782E6D0F8E43561
:1017A00080789B6A0DF1060198474670C4F8F005F1
:1017B00077E60222D0F8E43580F8122180F8105143
:1017C0005B682946984736E6012384F81231C3E561
:1017D000282202FB010080F81C1104EB810180F833
:1017E0001E3180F81DE190F81F21896955E701211C
:1017F000F9E600BFCC38002010B5044629B990F8AE
:101800001121032A0DD0002010BDD0F8E4359B69CA
:10181000002BF8D090F81221032AF4D19847002029
:1018200010BDD0F890230B46D0F87C138A4219D90A
:10183000521AC0F8902394F803C0D0F880038A426B
:1018400028BF0A46BCF1010F92B234D0C4E9E223AA
:1018500004F55D71C4F88003A4F87433204674F075
:10186000A1FBD0E7D0F8E4351B691BB190F8122139
:10187000032A1ED000234FF480720421C4E94A33A6
:10188000C4E94C3384F81111A4F81C2104F58E71BD
:10189000204674F087FB636D0D4A1A61E278012AD5
:1018A000B1D104F2CC545C614FF0802219681A6007
:1018B000A9E79847DEE70844C4E9E22304F55D712F
:1018C000C4F88003A4F87433C4F88403C6E700BFE7
:1018D0001800086038B5044649B990F81131022B58
:1018E00011D094F81631012B39D0002038BDD0F832
:1018F000E4355B69002BF8D090F81221032AF4D16B
:101900009847002038BDD0F83831D0F824219342D0
:101910002FD990F803C09B1ABCF1010F0D46C0F8F7
:101920003831D0F828116ED09BB2C0F830314FF466
:101930008073C0E94A11C0F8345100F58E71A0F8E7
:101940001C3174F02FFBC4E9E255C4F8805304F550
:101950005D71A4F87453204674F024FBC1E73F4B3B
:101960002269D3F864145160002384F816310020F2
:1019700038BDD0F83C31B3FBF2F502FB15350DBB99
:101980009A421FD8D0F8402193421BD24FF4807363
:10199000A0F81C3100F58E71C0E94A55C0E94C55DC
:1019A00074F000FBE378C4F84051012BC4E9E25520
:1019B000C4F88053A4F8745308BFC4F8845304F5E2
:1019C0005D71C8E7D4F8E435DB681BB194F81221E7
:1019D000032A15D0E27800230521012A84F8111189
:1019E000C4E9E233C4F88033A4F8743304F55D71BC
:1019F00024D0204674F0D6FA636D194A1A6170E754
:101A000020469847E6E79BB21144C0F830314FF4C6
:101A10008073C0E94A11C0F8345100F58E71A0F806
:101A20001C3174F0BFFAC4E9E255C4F8805304F5E0
:101A30005D71A4F87453C4F884538CE7C4F88433FC
:101A4000204674F0AFFA636D0548186104F2CC5279
:101A50005A614FF080211A68196042E77034002003
:101A60001800086070B50B7813F060020D4604464C
:101A700024D0202A04D0204674F088F9022070BDBA
:101A8000CA8848781AB31B0640D5324E3146FEF755
:101A9000BFFDEB884FF480720221A4F81C210022C4
:101AA00084F81111C4E94E33C4E94A66C4E94C32E2
:101AB00004F58E71204674F075FA06E04B780A2B17
:101AC00010D00B2B08D0062BD5D0002070BD0222E1
:101AD0001144FEF79DFDF8E78B78C3BB1E4AC2F8A0
:101AE0006C34F2E7022180F811114FF48071A0F8F4
:101AF0001C111A490123C0E94A11C0E94E33C0E95B
:101B00004C3200F58E7174F04DFADEE71449154B36
:101B10000860E078C3F80C28002103F50163012870
:101B20004FF00305C4F88C13A4F87413C4E9E4223D
:101B300084F81151C4F88823C4F8803304F55D712A
:101B400008BFC4F88433204674F02CFABDE774F063
:101B50001DF9BAE7882B002070340020DC38002003
:101B60000000002078230020002310B51946044609
:101B7000402274F0ADF9802120460023402274F009
:101B8000A7F9D4F8E835A078012284F812215B681F
:101B90009847002010BD00BF10B502230446402224
:101BA000812174F095F9204602234022012174F02E
:101BB0008FF9204603230822822174F089F9104B03
:101BC0000222A3F84C20FEF70FFDE2780D4BC4F87B
:101BD000A8334021C4F8B013012A4FF000004FF0A1
:101BE0000101C4F8B403A4F89C13204604F56771FE
:101BF00008BFC4F8AC3374F037FA002010BD00BF42
:101C0000000000206438002030B5812183B00446F4
:101C100074F02EF90121204674F02AF92A49002592
:101C20000223402281F888592046812174F050F91E
:101C3000012102234022204674F04AF9234BD3F8B5
:101C4000702483F858541268284690470095009AEB
:101C5000E1681F4B42F010020092009A0A610A6983
:101C60000092013B02D0009AD006F8D400230193E1
:101C7000019B43F020030193019A154B012060F36F
:101C80008A120192019A0A610A690192013B02D00B
:101C9000019A9206F8D4E2780E4BC4F8A8331F20BC
:101CA0000021C4E9EC01012A4FF00101A4F89C13C2
:101CB000204604F5677108BFC4F8AC3374F0D4F95A
:101CC000002003B030BD00BF782300207034002016
:101CD000410D0300A83800202DE9F047294FDFF817
:101CE000AC90294CDFF8A8A082B000F101080026D2
:101CF00006E09DF80700FF282FD1013646452CD07D
:101D0000D7F87C5995F91030AA6803EB830309EBE7
:101D100083039207186E23D5012300220DF10701DA
:101D200074F086FFAB689B07E3D4D7F8802961681D
:101D30004FF4FA7303FB02F2AAFB023292096368C2
:101D40005B1A9A42FBD26B69002BD2D09DF8070038
:101D50001A689B881383FF28CFD002B0BDE8F087B4
:101D60006B6913B11A689B885383D7F8802961681F
:101D7000D200AAFB0232920963685B1A9A42FBD234
:101D8000CAE700BF78230020001000E00000002018
:101D9000D34D621070B5044608200D46FFF79CFF36
:101DA000FF2814D0FE2801D0022070BD094E2B461A
:101DB000D6F87C092146002274F086FF0022D6F86E
:101DC0007C090223114674F07FFF002070BD0120C2
:101DD00070BD00BF7823002070B52E4C2E4AD4F879
:101DE0007C5995F9103003EB830302EB8303AA6857
:101DF00082B000204FF6FF519207C4F84809ADF8B1
:101E00000410186E33D5022301AA002174F010FFCC
:101E1000AB689B0714D50120FFF75EFFFF2809D0B0
:101E2000D4F88439C4F83C390020092384F84C39AB
:101E300002B070BD0423022084F84C3902B070BD9A
:101E4000D4F880291549164B48684FF4FA7606FBFA
:101E500002F2A3FB023292094B681B1A9A42FBD290
:101E60006B69002BD7D01A689B881383D3E76B6903
:101E700013B11A689B885383D4F880290749084B0B
:101E80004E68D200A3FB023292094B689B1B9A4218
:101E9000FBD2B8E77823002000000020001000E00B
:101EA000D34D621070B540F04002002362F3070387
:101EB0000A0E62F30F230A0C82B062F317430A0A78
:101EC00062F31F639522044600938DF804108DF889
:101ED000052074F041FF08B9002C48D1254D264A51
:101EE000D5F87C4994F91030A16803EB830302EB29
:101EF00083038A07186E0CD506236A46002174F006
:101F000097FEA3689B0717D5082002B0BDE8704074
:101F1000E2E6636913B11A689B885383D5F8802978
:101F20001649174B4E68D200A3FB023292094B6848
:101F30009B1B9A42FBD2DFE7D5F880290F49104B53
:101F40004FF4FA7000FB02F2A3FB023248689209D8
:101F50004B681B1A9A42FBD26369002BD4D01A68D3
:101F60009B881383082002B0BDE87040B4E6FF20D0
:101F700002B070BD7823002000000020001000E0B7
:101F8000D34D62102DE9F0412A4C82B005468846B7
:101F900017461E4694F84C0904280BD0082807D190
:101FA000D4F84439AB423DD0FFF716FF0228F1D0F8
:101FB000012032E0D4F87C0907F0E0F994F84239C6
:101FC00073BB69021820FFF76DFF68BB94F84C39AA
:101FD000082B27D0FE238DF80530FF23D4F87C0989
:101FE0008DF8043001AA0223002174F06DFED4F8AC
:101FF0007C0980234246002174F066FE01220623FC
:10200000C4F82889C4F82C59C4F83479C4F838695C
:1020100084F8302984F84C39002002B0BDE8F08102
:102020002946CFE7FC23D6E7FEF754FBFEF7A0FBDB
:102030000320F2E77823002070B51E4C94F84C3949
:10204000042B06460D4609D0082B25D1D4F8443977
:1020500083421FD0FFF7C0FE02281DD1D4F87C09AF
:1020600007F08CF900213720FFF71CFF29461720C5
:10207000FFF718FFC0B994F842397BB971021920F3
:10208000FFF710FF80B9082384F84C39C4F8485989
:10209000C4F84469022070BD012070BD314619208A
:1020A000FFF700FF0028EED0FEF714FBFEF760FB01
:1020B000032070BD782300202DE9F0411C4C05461B
:1020C00094F84C090428884617461E4608D008286C
:1020D00002D00020BDE8F081FFF77EFE0228F8D193
:1020E000D4F87C0907F04AF994F84239B3B9690287
:1020F0001120FFF7D7FEB8B90522D4F8843984F847
:102100004C29C4F82889C4F82C59C4F83479C4F887
:102110003869C4F83C390120BDE8F0812946112016
:10212000FFF7C0FE0028E7D0FEF7D4FAD1E700BFE2
:1021300078230020F0B5D44CD4F87C0985B0002871
:102140005BD094F84C596B1E082B4ED8DFE813F087
:1021500041010900E1004D00B8007F0067004D001B
:102160005700D4F87C0907F009F994F84159A5F112
:102170000205B5FA85F56D090021AD073720FFF797
:1021800091FE29462920FFF78DFE0546FEF7A2FAAB
:10219000ADB994F84139D4F87C09022B00F0B8812C
:1021A000D4F87C0984F8425907F0E8F800210920A6
:1021B000FFF778FE002800F06B81FEF78BFAD4F869
:1021C0007C09022106F0D4FF94F84C596E1EF6B239
:1021D000022E0AD8D4F88439D4F83C299B1AC82B8B
:1021E00006D9FEF7C5FA94F84C59042D00F0208169
:1021F000A5F10800B0FA80F0400905B0F0BD74F018
:10220000ABFD002840F00F81D4F83C39D4F8842984
:10221000FA33934280F02C81FEF7AAFA91E774F02A
:102220009BFD0028F0D0D4F848390022012B84F817
:10223000402940F2C281D4F844290825013B0132EB
:10224000C4F84839C4F8442984F84C59D0E794F8C4
:102250003019D4F82829D4F87C09802302EBC11264
:10226000002174F031FD94F830390133DBB2042BD6
:1022700084F8303940F0FC80844AD4F87C09022389
:10228000002174F021FD0123D4F87C090022694665
:1022900074F01AFD9DF8003003F01F03052B00F0C9
:1022A0006B81FEF765FAD4F83459002D3FF449AF3D
:1022B000D4F83839D4F82C1900220120A84740E777
:1022C000D4F828094FF40071FFF764FD0128054692
:1022D00000F0B180022800F0B580002840F0C880EE
:1022E000FEF7F8F9D4F8346984F84059042384F8E7
:1022F0004C39002E00F09C802846D4F83839D4F8A8
:102300002829D4F82C19B04794F84C596E1EF6B20F
:102310005EE710216846FFF73DFD00287FF44FAFD0
:102320009DF800209DF803109DF80D30BDF8065073
:10233000A4F85A5962F3070061F30F209DF80410C6
:10234000BDF8012061F317409DF8051052BA61F302
:102350001F60A4F854291B019DF80E209DF8081059
:10236000C4F85609DBB2DDF8090043EA121303F59D
:10237000FA630D0900BA01F00F0102F00F02A4F890
:10238000623984F8605984F86119C4F85C0984F8EA
:102390006429FEF79FF994F8423973B9D4F87C099F
:1023A00006F0ECFF4FF400711020FFF77BFD0546AF
:1023B000FEF790F9002D7FF42FAFD4F87C090221AD
:1023C00006F0D6FE00220423C4F8482984F84C39CC
:1023D000B7E6D4F87C0906F0D1FF00210846FFF7E4
:1023E00061FD0546FEF776F9012D40F0BB80D4F87B
:1023F0007C09002684F8416906F0C0FF40F2AB1169
:102400000820FFF74FFD05283AD0012800F09880FA
:10241000FEF760F994F84159002D00F0C6800223C0
:1024200084F84C398DE6FEF755F9042384F84C39CD
:10243000012005B0F0BDD4F83C39D4F884296433C8
:10244000934215D2FEF746F9FEF792F9D4F83459C3
:10245000002D3FF476AE0022D4F83839D4F82C1988
:102460001046A8476DE6FFF7B7FC022800F0AA80E7
:1024700094F84C596E1EF6B2022E7FF6ABAEB4E65F
:1024800084F84159C4E700BF782300203CF30708D3
:1024900075481021FFF77EFC00287FF48EAE94F87B
:1024A000773913F001033FF488AE94F8682992114C
:1024B00000F08F80012A7FF480AE94F86F296B4E74
:1024C0009200D2B216210225C5F108038B4228BF23
:1024D0000B46C3F108052A419840C91A40EA020098
:1024E0004FF0000516F8012FEED101308002C4F83C
:1024F0005009FEF7EFF8D4F87C0906F03FFF002101
:102500000A20FFF7CFFC50BB032384F84C3918E6B0
:1025100006F034FF29463A20FFF7C4FC2A4604237C
:1025200005466946D4F87C0974F0CEFBFEF7D2F874
:10253000002D7FF471AE009D2DBAC5F380752FE696
:102540000423D4F87C093246694674F0BDFB9DF83B
:102550000330AB2B04BF022384F8413958E7FEF760
:10256000B9F859E694F84C59D4F87C096E1E02214A
:10257000F6B206F0FDFD2BE6D4F83469D4F88439C0
:10258000C4F83C39072584F84C59002E3FF430AE8E
:10259000D4F83839D4F82829D4F82C190120B047B8
:1025A00094F84C596E1EF6B212E6D4F87C0984F801
:1025B0004C59022106F0DCFD1AE63FF454AF042327
:1025C00084F84C39FEF786F894F84C596E1EF6B232
:1025D000FEE594F86D1994F87159254F01F00F013B
:1025E000AD0103FA01F1EDB2104603230626C6F150
:1025F00008029A4228BF1A46C2F1080635419040A7
:102600009B1A40EA05004FF0000617F8015FEED173
:1026100094F86EC9174F4FEA8C1C02305FFA8CFC9D
:102620000C25062200E00022C2F10802AA4228BFBF
:102630002A46C2F108064CFA06F69340AD1A17F87E
:1026400001CF43EA0603EED101338340C817A3FB51
:10265000011203FB0022490A41EAC251C4F8501991
:10266000FEF738F847E700BFE02C0020E72C0020F9
:10267000E92C0020E62C0020F8B500220D2335219E
:10268000022008F037FB2E4DC5F87C09A0B30021CD
:1026900006F06EFD0BF0DEFA04460E460BF0DAFA99
:1026A000001B61EB0601B0F57A7F71F10001F5D3F3
:1026B000D5F87C29536913B119689B880B8392F96B
:1026C0001030204E03EB830306EB83030022186EC9
:1026D00011460A2374F0ACFAD5F87C793B79022BC9
:1026E0000DD001220023D5F8841985F84C2985F8EE
:1026F0004039C5F83C19F8BD85F84C09F8BD97F983
:102700001030114C03EB830306EB83010B6E1A8927
:10271000920702D51B891B06E3D5013CF6D10221A5
:10272000384606F025FD384608F0C8FA95F84039D5
:1027300085F84C49013385F84039C5F87C49F8BD26
:102740007823002000000020A18601001049114BD1
:10275000D1F8882042F4700210B4C1F888201A68B9
:102760000D4C002042F001021A6098601A6822F0B5
:10277000847222F480321A605C601A68074C22F47A
:1027800080221A60D8608C605DF8044B704700BFEF
:1027900000ED00E000380240103000240000000886
:1027A000704700BF82B00023414A01930093136831
:1027B00043F48033136003E0019BB3F5A04F09D0CD
:1027C000136803F400330093019B01330193009BD2
:1027D000002BF1D0364B1B6813F4003318BF0123D4
:1027E0000093009B012B01D000BFFDE7304B314926
:1027F0001A6C314842F080521A640A6842F440422E
:102800000A609A689A609A6842F400429A609A68EC
:1028100042F4A0529A6058601A6842F080721A60BE
:102820001A689201FCD5254A40F205711160996839
:1028300021F003019960996841F00201A2F58062DC
:102840009960936803F00C03082BFAD1936803F0A6
:102850000C03042B29D0082B0ED0194B1449194A0C
:1028600089681948C1F303110A4492F86020D340E3
:10287000C0F8243102B070475368516813F4800FD8
:10288000536814BF114A0E4AC3F3881301F03F0185
:10289000B2FBF1F202FB03F3054A5268C2F30142B4
:1028A00001325200B3FBF2F3D8E7084BD6E700BF82
:1028B000003802400070004008544007003C0240CD
:1028C0000024F400E0F207080000002000127A0063
:1028D0002DE9F84345697DB90768C7F30D0804463B
:1028E0000E46B8F1000F0AD0D6F80080FDF716FDAD
:1028F00009283BD06FF001052846BDE8F883514B0D
:102900009F422AD303F580439F4224D303F580439B
:102910009F427FD34C4B9F427FD903F580339F4228
:102920007ED903F500339F427DD903F500339F42E2
:102930007CD903F500339F4269D903F500339F42E8
:1029400077D903F580239F4276D9B7F1016F76D30B
:1029500005200BF0DBF94FF00808FDF7DFFC092834
:1029600021D04FF0FF352846BDE8F883374E336954
:1029700023F440733361336943F400733361336983
:1029800043F001033361C7F80080FDF7C7FC3369EA
:10299000092823F001033361ACD123680433236099
:1029A0002846BDE8F883DFF8A490D9F8103023F466
:1029B0004073C9F81030D9F8103043F40073C9F8E7
:1029C0001030D9F8103023F0F803C9F81030D9F8D6
:1029D000103043EA080343F00203C9F81030D9F875
:1029E000103043F48033C9F81030FDF797FCD9F864
:1029F000103023F00203C9F81030D9F8103009283C
:102A000023F0F803C9F810303FF46EAFA9E74FF098
:102A10003808A2E74FF010089FE74FF018089CE72E
:102A20004FF0200899E74FF0280896E74FF030085C
:102A300093E74FF0400890E74FF048088DE74FF0DC
:102A400058088AE700400008FFFF0008003C0240E9
:102A50000148FDF7DDBB00BF2C0100200148FDF758
:102A6000D7BB00BF780300200148FDF7D1BB00BFF2
:102A7000C40500200148FDF7CBBB00BF10080020B3
:102A80000148FDF7C5BB00BF5C0A00200148FDF707
:102A9000BFBB00BFA80C0020704700BF024B03481B
:102AA000D3F87414FEF7FCB9703400200000014024
:102AB00010B5064C0648D4F87414FEF7F1F9D4F8B2
:102AC00094140448BDE81040FEF7EAB970340020C1
:102AD000000001400040014010B5064C0648D4F803
:102AE0007414FEF7DDF9D4F898140448BDE81040DA
:102AF000FEF7D6B9703400200000014000440140C8
:102B000010B5064C0648D4F87414FEF7C9F9D4F889
:102B10009C140448BDE81040FEF7C2B97034002090
:102B20000000014000480140034B4FF08040D3F8C3
:102B30007814FEF7B5B900BF70340020024B03488B
:102B4000D3F87C14FEF7ACB97034002000040040C8
:102B5000024B0348D3F88014FEF7A2B9703400206A
:102B600000080040024B0348D3F88414FEF798B9DC
:102B700070340020000C0040024B0348D3F890143E
:102B8000FEF78EB9703400200004014010B5064CE9
:102B90000648D4F89014FEF783F9D4F8A01404483A
:102BA000BDE81040FEF77CB97034002000040140FD
:102BB0000018004010B5064C0648D4F89014FEF7F3
:102BC0006FF9D4F8A4140448BDE81040FEF768B9C2
:102BD0007034002000040140001C004010B5064C79
:102BE0000648D4F89014FEF75BF9D4F8A81404480A
:102BF000BDE81040FEF754B97034002000040140D5
:102C0000002000400348D0F8FC3E13B100F56F608F
:102C100018477047000000200348D0F81C3F13B14C
:102C200000F5716018477047000000200348D0F895
:102C30003C3F13B100F57360184770470000002057
:102C40000348D0F85C3F13B100F575601847704732
:102C5000000000200348D0F87C3F13B100F57760F6
:102C600018477047000000200348D0F89C3F13B17C
:102C700000F5796018477047000000200348D0F83D
:102C8000BC3F13B100F57B6018477047000000207F
:102C90000348D0F8DC3F13B100F57D60184770475A
:102CA000000000200348D0F8FC3F13B100F57F601E
:102CB00018477047000000200248C3690BB110306C
:102CC00018477047001000200248C36B0BB130302A
:102CD00018477047001000200248C36D0BB15030F8
:102CE00018477047001000200248C36F0BB17030C6
:102CF00018477047001000200348D0F89C300BB1F3
:102D000090301847704700BF001000200348D0F8EB
:102D1000BC300BB1B0301847704700BF0010002026
:102D20000348D0F8DC300BB1D0301847704700BFF3
:102D30000010002002683649002310B422F001027E
:102D4000212488420260036043608360C3600361A2
:102D5000446138D02F4B98422ED02F4B98423CD014
:102D60002E4B984240D02E4B984232D02D4B984259
:102D700041D02D4B984246D02C4B984217D02C4B2B
:102D800098423CD02B4B984216D02B4B984224D0E3
:102D90002A4B984228D02A4B98421AD0294B984265
:102DA00029D0294B98422ED0284B984208D14FF079
:102DB0003D5243F8AC2C03E04FF4746243F8202CEE
:102DC0005DF8044B7047224B5DF8044B3D229A603E
:102DD0007047204A43F8642CF2E74FF474125DF810
:102DE000044B43F8382C70474FF074625DF8044B85
:102DF00043F8502C7047184A43F87C2CE0E73D22FA
:102E000043F8082CDCE7154A43F8942CD8E700BFB8
:102E1000106002402860024040600240586002405A
:102E20007060024088600240A0600240B8600240CA
:102E3000106402402864024040640240586402402A
:102E40007064024088640240A0640240B86402409A
:102E5000006002403D000020400F002000003D20A7
:102E6000214A936803F00C03042B10B43AD0082BCA
:102E70001FD01E4B1C4C0360A1681D4AC1F30311F7
:102E8000114491F87010CB404360A168C1F38221D6
:102E9000114491F8701023FA01F18160A1685DF886
:102EA000044BC1F342310A4492F87020D340C3600E
:102EB00070475368516813F4800F536814BF0D4A6C
:102EC0000A4AC3F3881301F03F01B2FBF1F202FB9F
:102ED00003F3054A5268C2F3014201325200B3FBC8
:102EE000F2F3C7E7034BC5E7003802400024F400C3
:102EF000E0F2070800127A0070B5446B8668A38977
:102F000023F400531B0405461B0CA381837995F819
:102F100005C0C3F3800019030CF001021B021CF072
:102F2000020F4FEA00304FEA820203F4806318BFB9
:102F300042F0080203431A43238A9BB201F4005172
:102F400023F440530B432382A38923F4B05323F08B
:102F50000C031B041B0C1A43A281A38A23F44073A5
:102F60001B041B0C84B0A3826846FFF779FF2E4B2D
:102F70009C4205D003F580639C4201D0029B00E097
:102F8000039BA2892949120403EB83034CBF7600FB
:102F9000B60003EB8303B3FBF6F3A1FB0302A089A6
:102FA00052096426000406FB12334FEA021227D4AA
:102FB0001B013233A1FB0313C3F3431313439BB22F
:102FC00023816B79A9799E0703F00102184B48BF52
:102FD00042F002029C421BD00A07A38A0AD59BB288
:102FE00043F00803A382A3899BB243F40053A38157
:102FF00004B070BD23F008031B041B0CA382F2E78E
:10300000DB003233A1FB0313C3F342131343D6E7B0
:10301000D507E1D5074BD3F8C02CB3F8C43CC8079B
:103020004CBF13835383D7E7001001401F85EB513A
:1030300000140140782300202DE9F843394C9DF815
:1030400020509DF82490A0420F4690461E4649D03D
:10305000354B98424ED0354B984253D0344B984222
:103060002BD0344B984255D0334B984221D14B460C
:103070002A4631460520FDF761FE04460023C4E9D7
:103080000B78C4E90733C4E909336571A66084F895
:1030900006902046FFF730FFEA07616B1AD4AB07B2
:1030A00013D48B899BB243F400538B812046BDE837
:1030B000F88300242046BDE8F8834B462A46314673
:1030C0000320FDF73BFE0446D8E7CB6843F08003BE
:1030D000CB60E6E74FF6DF730B80CB6843F020034D
:1030E000CB60DCE74B462A4631460020FDF726FE42
:1030F0000446C3E74B462A4631460120FDF71EFE33
:103100000446BBE74B462A4631460220FDF716FE31
:103110000446B3E74B462A4631460420FDF70EFE2F
:103120000446ABE700100140004400400048004066
:10313000004C004000500040001401408160DBE67C
:103140004171D9E68171D7E62DE9F043704F07EB65
:10315000C00985B005464FEAC00819F8040C07F00D
:10316000D9FB064619F8030C07F0D4FB044619F8FE
:10317000020C6FF0EBFF6B1CDBB21EB140F60C12C1
:103180003372F2801CB1237240F60C23E380304688
:1031900004223A2107F082FB042220463A2107F05C
:1031A0007DFB07EB08025B4B52F8084C9C4200F099
:1031B0008E80594B9C4200F09580584B9C4200F009
:1031C0009C80474417F8013C022B32D0032B7CD063
:1031D0005349544F012B08BF0F46A6886846FFF796
:1031E0003FFE26F03F06029B4F4AB3FBF7F1360441
:1031F000A2FB0323360C46EA9346A680228822F0DF
:1032000001021204120C22808AB2C1F30B019B0C42
:1032100009B942F001024FF4967101FB03F34349EF
:10322000A1FB03139B0901339BB242F400422384A8
:103230001FE0A6886846FFF713FE26F03F06029AB5
:10324000394B3604A3FB0213360C46EA9346A6809C
:10325000218821F001010904090C218034499209D7
:10326000A1FB021292099B0C0133042A238438BF6C
:103270000422A28323882F4A9BB243F001032380B8
:10328000238823F4816323F002031B041B0C4FF4F7
:10329000804143F4806323802181238823F08003CD
:1032A0001B041B0C238023889BB202EB451243F0C6
:1032B000010323800121002382F8B05482F8B11465
:1032C00082F8B23405B0BDE8F0831B4F85E703F503
:1032D000F2331A6A42F400121A621A6A22F40012D5
:1032E0001A626EE703F5F0331A6A42F480021A623A
:1032F0001A6A22F480021A6263E703F5EE331A6A4F
:1033000042F400021A621A6A22F400021A6258E7B2
:10331000F81000200054004000580040005C0040BD
:10332000009F2400804F120083DE1B43D34D6210A8
:10333000632D3E0570340020C02709002DE9F047B9
:10334000924E90F900108046807806EBC105013856
:10335000CC0090B055F8081C14282DD8DFE810F0E8
:103360004C012001150055005F009E00A600C3011E
:10337000B6017A0084003C020402D701C000D000EC
:103380002F003700A30195015401888A0C8B81B26C
:103390007F4841EA0441884300F02081D8E90201D6
:1033A000101A42F2107263EB0101904271F10001B8
:1033B00002D3152388F8023010B0BDE8F08798F8E2
:1033C00013000882C8E90223122088F80200888AC4
:1033D0000C8B80B240EA04406E4C844300F0B28013
:1033E00000200E900F9001200F910E900E99002951
:1033F00000F017820F9914310F910F990968490550
:10340000CCD5142388F80230D6E798F8110000F0E4
:10341000FE000882C8E90223052088F80200888A95
:103420000C8B80B240EA04405B4C844300F0A180E6
:103430000020009001900120019100900099002946
:1034400000F0FB81019914310191019909684F0540
:10345000D7D4A3E798F8110040F001000882C8E92A
:1034600002230B2088F80200888A0C8B80B240EA85
:1034700004404A4C84436DD0002004900590012004
:10348000059104900499002900F0D1810599143127
:103490000591059909684D05B3D47FE798F81300A5
:1034A0000882C8E90223072088F80200888A0C8B6A
:1034B00080B240EA0440374C84435ED00020029042
:1034C00003900120039102900299002900F0C1812C
:1034D000039914310391039909684E0591D45DE76E
:1034E000088820F480600004000C088098F811001F
:1034F00000F0FE000882C8E90223102088F80200CC
:10350000888A0C8B80B240EA0440234C844312D05A
:1035100000200C900D9001200D910C900C99002929
:1035200000F091810D9914310D910D9909684805AC
:103530003FF567AF32E798F81330FF2B06D198F8C4
:1035400010301BB1132388F8023035E7112388F8B7
:10355000023031E7D8F81400012800F08F810228EA
:1035600000F04382098B0E21C8E9022388F802107B
:1035700022E7062388F802301EE7D8F81400002856
:1035800000F06D81082388F8023015E7F81000205C
:10359000010003008400070082000700020003000E
:1035A000088820F400600004000C0880088880B2BD
:1035B00040F480600880088880B240F48070088001
:1035C000032088F80200888A0C8B81B2A94841EA5E
:1035D00004418843C8E902237FF4EEAE98F8123024
:1035E000002B40F0CE8198F81330FF2B00F03F8283
:1035F000042388F80230DFE6098889053FF5CEAE5E
:10360000002388F80230D7E6344414F8040C07F09D
:1036100081F9064614F8030C07F07CF9964AB2F8D3
:10362000103501339BB28246A2F8103516B13368CB
:10363000B2881A83BAF1000F04D0DAF80030BAF871
:1036400004201A831121304605F052FD1121504605
:1036500005F04EFD4FF0090965272EB13368B28899
:1036600019690A4240F02381013F00F01D810AF0F0
:10367000F1FA04460D460AF0EDFA001B61EB050174
:10368000052871F10001F6D3E7E7088880B240F41D
:10369000007008804FF6FF3088820121C8E90223BC
:1036A00088F8021088E6D8F81400002800F06D8130
:1036B000D8F8184014F8016B0E8201381225C8E9B9
:1036C0000504C8E9022388F8025075E6888A0C8B45
:1036D00081B2684841EA044188437FF45FAE0A231F
:1036E00088F8023068E6088880B240F4807008806C
:1036F000092088F80200888A0C8B81B25D4841EA73
:1037000004418843C8E902237FF456AEE7E700246A
:1037100001250A940B940B910A950A98002800F051
:1037200047810B9814300B900B98006846077FF583
:1037300035AED8F81400032800F06D81022800F29D
:103740004381088820F480600004000C0880088809
:1037500080B240F400700880098A88F81C40C8E9EB
:10376000022388F8025027E60020012408900990DF
:10377000099108940898002800F0148109981430E1
:1037800009900998006847077FF508AEEFF31185A7
:10379000102080F31288088880B240F400700880FE
:1037A000D8F818000E8A471CC8F81870EDB20670D9
:1037B00085F311880D8AD8F818106FF001004E1C9F
:1037C000C8F818600D70C8E90223C8F8140088F81A
:1037D0001C4088F80240EFE5002006900790012089
:1037E00007910690069C002C00F0E880079C14349A
:1037F0000794079C246864067FF5D0AD0C8AD8F83E
:1038000018104D1CC8F818500C70D8F8141088F80F
:103810001C000139C8E90223C8F8141088F8020016
:10382000CAE50F9918310F910F990968B6E5059906
:103830001831059105990968B0E501991831019190
:1038400001990968AAE50D9918310D910D9909683A
:10385000A4E5039918310391039909689EE5088846
:1038600080B240F4007008800121C8E9022388F882
:103870000210A1E50100030070340020088820F444
:1038800080600004000C0880EFF31184102080F3A6
:103890001288088B088880B240F40070E4B2088077
:1038A00084F311880C215FE616B13368B2885A831D
:1038B0000AF0D0F904460D460AF0CCF9001B61EB82
:1038C0000501052871F10001F6D316B13368B288FD
:1038D0001A830AF0BFF904460D460AF0BBF9001B33
:1038E00061EB0501052871F10001F6D3B9F1010979
:1038F0007FF4B2AE16B13368B2885A830AF0AAF9DF
:1039000004460D460AF0A6F9001B61EB05010528E7
:1039100071F10001F6D3BAF1000F04D0DAF80030EB
:10392000BAF804205A830AF095F904460D460AF0C5
:1039300091F9001B61EB0501052871F10001F6D337
:1039400016B13368B2881A830AF084F904460D462A
:103950000AF080F9001B61EB0501052871F10001F7
:10396000F6D3BAF1000F04D0DAF80030BAF8042028
:103970001A8398F90000441C3FF442AEFFF7E4FBC1
:103980003EE60F2388F8023016E5088880B240F43E
:10399000007008800121C8E9022388F81C1088F80B
:1039A000021009E509991831099109990968F5E4A6
:1039B0000B9918310B910B990968EFE407991831AD
:1039C000079107990968E9E4D8F81800098A441CA6
:1039D000C8F818400170D8F81410C8F80820013948
:1039E000C8F81410C8F80C30E6E4088880B240F437
:1039F00000600880EFF31184102080F31288088B98
:103A0000088820F480600004000CE4B2088084F38D
:103A100011880D21A8E5088820F480600004000CBE
:103A20000880EFF31184102080F31288D8F8180072
:103A30000D8A461CC8F818600570088880B240F4EA
:103A40000070E4B2088084F31188D8F81800098A5D
:103A5000441CC8F818400170D8F814100C20023922
:103A6000C8E90223C8F8141088F80200A4E498F802
:103A70001030002B3FF4BCAD31E600BF38B5184D17
:103A80009DF814E005EB40144FEA401C94F8B10493
:103A900000B938BD84F8C324C4F8C434012200231B
:103AA000490005F5966584F8C22484F8CC34049A5C
:103AB00084F8C0E4022384F8C114C4F8C82484F84C
:103AC000B23465440AF0C6F802460B462846FFF7B2
:103AD00035FC94F8B234002BF4D194F8CC0438BD02
:103AE0007034002038B5184D9DF814E005EB4014F3
:103AF0004FEA401C94F8B10400B938BD490084F87D
:103B0000C324C4F8C43484F8C1140023049984F88D
:103B1000C0E4022205F5966584F8C234C4F8C814DE
:103B200084F8CC3484F8B22465440AF093F8024651
:103B30000B462846FFF702FC94F8B234002BF4D170
:103B400094F8CC0438BD00BF7034002082B0064B1E
:103B5000002201920193019B03EB80030193019BDF
:103B6000196002B0704700BF5028004010B51C20FB
:103B700006F0D0FE1121044605F0BAFA4CB12368D4
:103B8000A2885A83C8200AF093F82368A2881A836F
:103B900010BDBDE81040C8200AF08AB8704700BFC9
:103BA000704700BF704700BF10B5104C94F81E3529
:103BB00023B90F4B4FF480225A6110BD4FF0E02221
:103BC000D2F8103D23F00603C2F8103DFEF7BEFD0B
:103BD000D4F824359B68DB07EBD5D4F8202613688E
:103BE00023F0030161F307031360E2E77034002060
:103BF000003C01402DE9F04FA14CD4F820355A6922
:103C0000D5078BB002D50BB0BDE8F08F5A699B6920
:103C100012EA0301F7D0C1F307430803019300F14F
:103C2000DD80019B5D073CD48807CEB203D5D4F874
:103C3000203502225A610029C0F244820A05C1F3EC
:103C4000072500F19581370707D58E4B8E48DB6934
:103C50009847D4F8203508225A61F60600F10A8206
:103C6000E80600F1BA81A80600F11481019BDA068A
:103C700008D5844B8448DB6A9847D4F820354FF444
:103C800080125A61019B9B06BDD57E4B7E481B6B03
:103C90009847D4F820354FF400125A610BB0BDE8B4
:103CA000F08FD4F824359E69DB691E40B6B2002E31
:103CB000BAD0754D4FF0000B05F118080F46F0070C
:103CC00040F18180D4F82415D8F8002008694B6BA6
:103CD00023FA0BF3DB01DBB203439068034013F0DC
:103CE0000109D8B200F00B824B6B012000FA0BF0F7
:103CF00023EA00034B6301239360624B62485B69D4
:103D00005FFA8BF1984794F81735012B00F07C820D
:103D100019F0800F57D0D5E94CC1D5F82431D8F827
:103D200000E0ACEB01029342DEF8180028BF134616
:103D300080B20333B0EB930F45D9D4F8243594F80F
:103D40001795CDE9026BBA4667469C46B94237D211
:103D5000D5F82431781A984228BF184600F1030B91
:103D6000D5F828314FEA9B0BB9F1000F10D182B280
:103D700003329210D8F8B8600AD04946013153F89E
:103D8000047B37608A42F9D1D5E94C71D5F82831E6
:103D9000014403448F42C5F82831C5F83411DEF8D8
:103DA00018300AD195F81C01012202FA00F0DCF863
:103DB000342022EA0002CCF834209BB29B45C5D3C4
:103DC000DDE9026B574676080BF1010B05F128057A
:103DD00008F104087FF473AF394625E7D4F8243599
:103DE0009D69DB691D402D0C3FF41BAF04F2145894
:103DF000DFF890B0029104F5AD6600274FF001099D
:103E0000C24608E06D0807F1010706F1040608F153
:103E1000280800F08E81EA07F4D53068D4F824151C
:103E2000836849690B40D9B2DB0740F16D8194F892
:103E30001735C0F80890012B07D10169D8F87C33F9
:103E4000C1F312015B1AC8F88C33DBF81030F9B2F9
:103E50005046984794F81735012BD3D1002FD1D174
:103E600094F82536052BCDD1D4F86835074919616A
:103E70000749596119684FF080211960C2E700BFF6
:103E800070340020F81000208439002018000860E9
:103E9000503F0020D4F82455D4F82C25AB68C3F348
:103EA0004103022B136814BF0021032161F30A03AD
:103EB00013606B6843F4807306A86B60FEF7D0FF55
:103EC000D4F82025079ED36823F47053D360A868E4
:103ED00010F0060FC0F3410100F039819E499F4860
:103EE0003144814240F2AC819D48A6F57401A1F5B0
:103EF0001051814240F2A8819A499B483144814245
:103F0000C0F0A6819948A6F18C71A1F54341814288
:103F100040F2A2819649974831448142C0F0A08185
:103F20009549964831448142C0F09E819448A6F15B
:103F3000B771A1F558518142C0F09E8191499248D4
:103F400031448142C0F09481904891493044884284
:103F500034BF062005204025012160F38D23D36066
:103F60004FF4005384F81615A4F8185553617DE6F4
:103F700000238DF8133094F826368DF81330854BD6
:103F800085485B6A9847D4F82435D4F8202598688A
:103F900094F81E354FF400615161002B3FF453AE8D
:103FA000C3077FF550AE94F82936012B7FF44BAE52
:103FB0009DF81330032B7FF446AED4F820367749B2
:103FC0001A6842F001021A601A6842F003021A608D
:103FD0000B6943F006030B6135E6D4F82465D4F889
:103FE00020157368002723F0010373600597059B74
:103FF00043F020030593059B67F38A130593059B04
:104000000B61674BBC460A690592013B02D0059AD9
:104010009206F8D494F8152552B1624B03EB820E48
:10402000FF2253F8040F8260D86B73458260F8D189
:104030000B2363F3070763F3070C4FF0FF33B36100
:104040004FF00113F3617761C6F810C0336856482A
:1040500023F4FE63336094F81725D4F86835012AF9
:1040600018616DD04FF480534B614A4B4A481B6A2C
:104070009847F8E5D4F820359A6922F010029A6141
:104080001A6AC2F34340022802F00F0100F0908048
:10409000062812D101EB810104EBC101D4F8E465DB
:1040A000D1F8A008C2F30A1210443268C4F8E02A1A
:1040B0003268C4F8E42AC1F8A0089A6942F01002F4
:1040C0009A61CDE594F81E353BB1D4F820261368EB
:1040D00023F0030060F307031360D4F824252D4B6D
:1040E0002D489D6A5368029123F001035360A8474D
:1040F000D4F8203502994FF000425A619EE501073D
:1041000007D5082393605EE68A0707D502238360FC
:1041100078E6C3060FD51023936054E60B077FF5AE
:1041200071AEDBF818305046984733680821996023
:1041300068E6029975E541067AD54023936042E628
:104140001A4A5A611A684FF080221A608AE74FF4BF
:104150000075092001E700BF401E1BFF3F420F0012
:10416000DFC810002013FBFE20D61300FF691800E3
:1041700000D3CEFE40771B00C05BB3FEC091210090
:1041800040AC2700C01D6AFE40E13300803C36FE93
:10419000E09C4100F81000208439002000ED00E090
:1041A000410D03009839002018000860503F00209E
:1041B00047F6F070104280D0C2F30A1201EB810082
:1041C00004EBC00002F1030C5FEAAC0CD0F8946879
:1041D000D4F8E4E54FEA810818BF002006D001308A
:1041E000DEF8007046F8047B8445F8D1414404EBC6
:1041F000C101D1F894081044C1F89408D1F8A0087E
:104200001044C1F8A00858E7BBF1000F7FF480AD5F
:1042100094F82536042B7FF47BADD4F86835184A22
:104220001A61184A5A611A684FF080221A606FE5C5
:10423000830758BF81467FF56BAD02239360C2E5CB
:10424000012140250E2088E6012140250D2084E62D
:10425000012140250C2080E6012140250B207CE631
:10426000012140250A2078E601214025092074E635
:1042700001214025072070E60121402508206CE639
:1042800018000860503F002002784368022A11D0CD
:104290000C490269D1F8180210B41840D1F8104244
:1042A000D1F80C12931E400A04FB030008445DF889
:1042B000044B7047034AD2E9802102EB410202EB32
:1042C00053207047B05F00202DE9F04F12F0020A32
:1042D000884E83B09B4601D000286FD0D6F8085294
:1042E000002D58D14FF0FF3C834C844FCDF804C0D3
:1042F000E046E646002300922268A57B904200F04B
:104300009E80002D40D003F58179012D07EB09191E
:104310000AD199F80750EA0706D415F07E0F03D1A9
:10432000ED0900F090809E460133082B04F1100443
:10433000E2D1BCF1000F009A04DABEF1000FC0F226
:104340009280F4466D4CD6F8983004EB0C1741F28D
:10435000180E013347F80E0041F21C0E0CF5817562
:1043600047F80E302F01C6F89830E35104EB0513DF
:1043700000275F6004EB05139B79042B7AD8DFE8F4
:1043800003F02940194043009C460133082B04F1F7
:104390001004B1D1CDE7D6E9833404FB053398424C
:1043A000A0D396F8B43113B9012386F8B431534B36
:1043B00001225A70002003B0BDE8F08F96F8B431A6
:1043C000A6F58054002B59D001230220637003B05E
:1043D000BDE8F08F12F0010776D104EB0513D01081
:1043E00093F807E0BBF1030F60F3C71E83F807E003
:1043F00068D94FF6FF735B4528BF5B4604EB051099
:104400008380BAF1000F49D1500705D504EB0510A0
:10441000C37943F00103C371D30608D504EB051536
:10442000EB79C3F34502013262F34603EB71344B7F
:10443000012003EB4C230B6003B0BDE8F08F009A22
:1044400005BB9C467EE7A568019A954238BF984611
:1044500003F1010338BF2A46082B019204F110042E
:104460007FF44AAF65E7B8F1000FA8BFC446BFF6B6
:1044700069AF9FE796F8B431002BA5D1012386F8E8
:10448000B431A1E7D6F898701C4C03F581759C46B1
:104490002B010137E750C6F898706BE7D6F89830D3
:1044A000D6F89C0001330130C6F89830C6F89C005D
:1044B00004EB0C1041F21C06835104EB051304209D
:1044C0009871A1E73B4699E70E4BD3F8D83C002BF7
:1044D0003FF470AF0A495E680B4A01EB4C210023A0
:1044E000B04700283FF466AF04EB05150223AB711B
:1044F00060E700BFB05F0020C85F0020B04F002021
:10450000C84F002078230020CD07000870B5104E5A
:104510003378022B0F4B0BBF020AC0F3D412C4B284
:1045200000F07F04D3F8000282B010440D4600234F
:10453000032201A9FFF7C8FE012807D13378019AA9
:10454000022B0CBF22F8145042F8245002B070BD68
:10455000B04F0020B05F00202DE9F04FDFF8209130
:104560000D4699F800102B68032985B0164640D0F7
:10457000022966D14FEA132A5FFA83F84FF4807B51
:10458000421E012A24D801249E421CD901288CBF36
:1045900000220122394F0192D7F878211AB1D7F8B9
:1045A0009411994250D0D7F80002002350440922B8
:1045B00003A9FFF789FE012824D0022815D020B1D5
:1045C0002B689E42E8D82E60032005B0BDE8F08F2E
:1045D000B8F1000F14D0294B93F8B42112B901227D
:1045E00083F8B421012389F80130022005B0BDE829
:1045F000F08F4FF0800BC3F3D41A03F07F08BFE7AE
:104600005C46C1E799F80010022916D00329ECD1C5
:10461000039B53F8282022F07042019BD5F800C07C
:10462000B2FA82F252099A4220D0A0440CEB040361
:10463000D8452B601DD20229EAD1039B33F81820FC
:10464000EBE74FF4807BD6E7D7F81012013A02EB84
:1046500041224902B2FBF1F21344B3FBF4F204FB32
:1046600012320AB123449B1A2B60AAE76645ACD8E4
:10467000A9E70AF1010A4FF00008A2E7B05F0020A5
:10468000B04F00202DE9F04FDFF850910B6899F8FA
:1046900000C0174609F58052BCF1020FD2F8005253
:1046A00083B08B46824640F08180DEB2A6EB0308E1
:1046B00005EB1325B8444FF480729044BB4208F1D7
:1046C000FF38B8FBF2F843D2A844BCF1030F06EB65
:1046D0000704A4EB030414BF4FF4807280229442B9
:1046E000A8EB050328BF1446B6BB944234BF0B2287
:1046F0000A2201A92846FFF7E7FD012829D199F8E8
:1047000000C0DBF80000BCF1020F00F1010325D06E
:10471000A64210D2019906F18042013A01EB8202D1
:10472000043901EB840142F8043F8A4203F101039A
:10473000F9D1DBF80000A31B0344BAF1010FCBF859
:10474000003023D09F4205F101054FF00006BCD890
:10475000012003B0BDE8F08F0B22CAE7A642EAD2DF
:10476000019906F10042013A01EB4202023901EBE4
:10477000440122F8023F8A4203F10103F9D1A31B4D
:104780000344BAF1010FCBF80030DBD1BB42D9D1E1
:10479000BCF1020F019B18D004F18044013C4FF0A2
:1047A000FF3243F82420DBF80030CBE703F07F062C
:1047B000C3F3D412BCF1030FA6EB03081544B844AD
:1047C00014BF4FF48072802277E704F10044013C6B
:1047D0004FF6FF7223F814200120BAE7B04F0020F3
:1047E00030B50446C06983B010B9012003B030BDB4
:1047F0000D460023032201A9FFF766FD0128F5D12C
:10480000B4F92020002A19DB019B012D4FEA421147
:1048100003EB421203D0022D1BD1E5205854A368AC
:10482000D3612378032B04D1002313775377937735
:10483000D377636A53831B0C9382D6E7064A92F8B8
:10484000B41109B982F8B401044B01225A70022054
:10485000CCE7E368E4E700BFB05F0020B04F002082
:104860002DE9F043814683B00E4699F83C30042B85
:1048700000F28980DFE803F02F03704F3F00434DC3
:10488000DFF810814FF6F77705F5805418E0BA424B
:1048900060D86EF005FC01284FF0000138D1D9F83E
:1048A0003000FFF733FE012832D1019AD4F81412F8
:1048B000C9F83020531E8B4228BF0B46C4F814326F
:1048C0002A78D9F83030032A01A918469AB2DED1E5
:1048D0004345DED93EE0710001F0FE014846FFF796
:1048E0007FFF012843D1D9F83430002B18BF0220B4
:1048F00089F83C00B9E799F82830042B04BF00235D
:1049000089F82830D9F838300BB14846984701204B
:1049100003B0BDE8F0831E48D9F82C20D0F89431BC
:10492000C0F894219B1AD0F8102202FB03F3D0F8B0
:10493000782102EB4322C0F87821D0F87C2102EBE9
:104940004322C0F87C21002100F5B870FFF748FF32
:1049500001280CD10420CBE7D9F8342009F130012B
:104960000020FFF78FFE012801D10320C0E70228B5
:10497000CED199F82830042B04BF002389F82830C1
:1049800003B0BDE8F0830220F3E700BFB04F002082
:10499000B05F0020F7FFFF0F38B5044694F83430BD
:1049A000052B58D8DFE803F0372B2319100394F8B0
:1049B0002830082B04BF002384F82830274B01221D
:1049C00083F8B521022038BD94F82830082B04BFA5
:1049D000002384F82830012038BD00212046FFF74D
:1049E000FFFE012837D1042084F83400D6E7D4E94B
:1049F0000B01FFF78BFD01282DD10320F4E7206B7D
:104A00004FF0FF31FFF782FD012824D1E36A002B2C
:104A1000F3D00220E8E7114DD5F8082204F1300167
:104A200001200232FFF798FD012805D00238C0B2FC
:104A3000012810D80520D7E7E368D5F81012226BBB
:104A4000C5F8142203EB4123C4E90332E36A002BC7
:104A5000CAD16262C8E7002038BD00BFB05F002045
:104A600070B5044694F83830032B4BD8DFE803F0D8
:104A70001F170B0200212046FFF7B2FE431EDBB2D8
:104A8000012B40D970BD626B04F130010120FFF7AA
:104A9000F9FD0128F2D1032384F83830E2E71F48FA
:104AA0000021FFF79DFE0128E8D10223F4E71C4A0C
:104AB000E56802F580531278D3F81012D3F8940108
:104AC000032A14BF4FF48072802202FB01F105EB30
:104AD0004125C4E90350D3F87851A5EB4125C3F82B
:104AE0007851D3F87C51861AA5EB41210244C3F8D2
:104AF0009421C3F87C11E36AC4E90C025BB96062DB
:104B00000123C9E7022094F82830062B04BF0023B4
:104B100084F8283070BD2663F2E700BF20610020D2
:104B2000B04F00202DE9F0434368C3F308020A4464
:104B3000B2F5007F83B005460C4605D223446B6076
:104B4000012003B0BDE8F08390F91A20501C0AD070
:104B5000464902F5817201EB0212D17921F001017F
:104B6000D171FF22AA7695F91B20511C16D03F4E19
:104B700002F5817206EB021106EB0212C979D079B7
:104B8000C1F34501012986BF01F1FF3101F03F0169
:104B90000021FF2661F34600D071EE762A78022AC2
:104BA000CCD0324E06F58058D8F81022B4EB422F04
:104BB0004FEA42292BDCD8F818721F407A42A242F1
:104BC00025DCE2194A45286913D32A7E120729D524
:104BD000D8F89421411C8A421BD300D100214B44B8
:104BE000DB1BA4EB0909686109EB070429616B6011
:104BF00008460028A4D03278032A31D080B24FF67C
:104C0000F77290429CD81A4614446C6098E70020D2
:104C100097E798F8B42102BB012388F8B431737088
:104C20006B68DCE701A96EF03BFA0128EFD16B68F5
:104C3000297828696861A4EB09049944A9EB070362
:104C400001986B6002293C4428611A46D1D1D8F8FA
:104C50002012B3EB412FD7D372E701227270BEE767
:104C6000034A90423FF66CAFCDE700BFB04F002043
:104C7000F7FFFF0F2DE9F047044682B094F8383073
:104C8000032B00F2AB80DFE803F09A170C02236CD1
:104C9000002084F8280003B19847022002B0BDE844
:104CA000F087236C002284F828200BB12046984717
:104CB000012002B0BDE8F08723786668484F022BD8
:104CC0001CBF474BD3F81832204618BF1E40FFF7D1
:104CD000DBFAC6F34F26361A0546B6B2A7F580585A
:104CE00011E0D7F810325A1E914557D2FFF71AFF3C
:104CF00040B997F8B43113B9012387F8B4310123CF
:104D000088F80130013506EB050C022201A90023C9
:104D100028461FFA8CF9FFF7D7FA01284FF40072E2
:104D20004FF00001BAD1019879F0ACF9E3694FF482
:104D300000712046002BD4D06368002BD1D1019B99
:104D40004FF020324FF02E0C4FF0100EC3F8012020
:104D5000C3F80520A3F8092083F800C042F62E6AA4
:104D6000D4F824C0A3F820A083F80BE0C3F82220D5
:104D7000C3F8262083F82A20E26BA3F81AC05A87CA
:104D80002CFA0EFC22FA0EF283F82BE09A86A3F896
:104D900014C0D7F810325A1E9145A7D3C3EBC353A2
:104DA000590201F500712046FFF7BCFE28B997F8BB
:104DB000B4317BB10B4B01225A70022007E0204630
:104DC000FFF7EAFD012802D0022807D1032084F86A
:104DD000380053E7012387F8B431EBE700205DE7A3
:104DE000B05F0020B04F00202DE9F041B1F9043050
:104DF0000F2B82B00E460446174632D02046FFF7EE
:104E000043FA94F91B80B8F1FF3F3BD05C4B41F271
:104E1000180203EB08118A58904211D1183303EBA2
:104E20004825B38801331BB205EB4315B3802046F8
:104E30003D60FFF729FA3060012002B0BDE8F08143
:104E400003F5805292F8B41100295CD001225A7007
:104E50002378022B4CD02269002A60D100233B60CA
:104E6000EAE74FF40071FFF75DFE002847D04FF6E8
:104E7000FF73B3802046FFF707FA94F91B80B8F15F
:104E8000FF3FC3D12378022B41D02269002AE5D00D
:104E90003B4B1B78032B69D093B24FF6F7718B42D3
:104EA00094BF00230123002BD6D138B9354B93F89A
:104EB000B421002A4DD0324B01225A700023112216
:104EC00001A9FFF701FA012810D1019D2E4BEB1A21
:104ED00048BF03F2FF13B3F5805F4FEA63222DD280
:104EE0004FFA82F884F81B80002D9AD12378B0E71E
:104EF000244A6368D2F82022B3EB422FAED20020BE
:104F000002B0BDE8F081012182F8B4119EE71D4B8B
:104F1000D3F820226368B3EB422FC6D39EE7184B29
:104F20001B78032B19D093B24FF6F772934294BFBC
:104F300000230123002B91D10020E1E7114B93F8CE
:104F4000B42112B9012283F8B4210D4B01225A7009
:104F5000C8E7012283F8B421ADE70C4B9A4294BF15
:104F600000230123002B7FF479AFE5E7074B9A423A
:104F700094BF00230123002B7FF46EAF95E700BFA1
:104F8000B04F0020B05F0020C84F0020F7FFFF0F98
:104F90002DE9F043044689B094F83030042B11D841
:104FA000DFE803F0501361035A00237E9A0640F1B4
:104FB000FA80E0690023112204A9FFF785F901288E
:104FC00000F0F18009B0BDE8F083C64D03AE04F1F6
:104FD0001C07324639462846FFF706FF012800F035
:104FE000FD800228EED1C04901F5805595F9D231F6
:104FF0005A1C0AD003F5817301EB0313DA7922F00E
:105000000102DA71FF2385F8D23195F9D3315F1CA3
:1050100016D003F5817301EB031201EB0313D27970
:10502000D979C2F34502012A86BF02F1FF3202F0AC
:105030003F02002262F34601FF22D97185F8D32195
:10504000042306E0A7486EF005F94FF6FF7201232E
:10505000228484F830309FE70020E36A207009B092
:10506000BDE8F0431847A14D95F8E031002BA9D1D8
:1050700004F11C0703AE05F5DC783246394640469C
:10508000FFF7B2FE012840F01A81039B002B00F0CD
:10509000F4801A78E52A01D0002AEED19449591AF1
:1050A00048BF01F2FF11B1F5805F4FEA612280F045
:1050B00050818D4912018F480244907B04280CD006
:1050C000D5F898000130C5F898005060042090731E
:1050D000D5F89C200132C5F89C2095F9D221561CA8
:1050E0000AD002F5817201EB0212FF2085F8D2018D
:1050F000D07920F00100D07195F9D321501C18D03F
:1051000002F5817001EB001201EB0011D279C2F3BC
:105110004502012A4FF0FF0088BF02F1FF3285F8F7
:10512000D301C8798CBF02F03F02002262F346002F
:10513000C87118462022002178F0A4FFD4F831204D
:10514000D4F8351041600260B4F8392094F83B106F
:1051500081720281627EC272019005A802F036FD62
:10516000019B002800F0DE809DF816009DF81720B6
:105170009DF8191042EA4012BDF81400A0F2BC706C
:1051800042EA40229DF81A00490141EA50019DF887
:10519000180041EAC02192B288B2D9811A821A83DA
:1051A000D882032355E720466EF054F82369002B7C
:1051B00000F08A80237E03F0F70213F004032276C6
:1051C00040F09A80122A00F0B080E36A0022204664
:1051D00084F8282009B0BDE8F0431847DDF80C80BA
:1051E000B8F1000F00F0C18098F80030002B00F0FB
:1051F000BC8098F80B9019F0080F7FF4EAAE0B22F0
:1052000004F13101404677F097FD00287FF4E1AECC
:10521000637E89EA0303D90640F1E680324901F54D
:10522000805595F9D2315A1C0AD003F5817301EBF0
:105230000313FF2285F8D221DA7960F30002DA71D4
:1052400095F9D321571C3FF4FBAE02F5817201EBB7
:10525000021301EB0212DB79D179C3F34503012B71
:1052600086BF03F1FF3303F03F03002363F34601DE
:10527000FF23D17185F8D331E2E695F8B831022BDE
:105280004FF009023FF4DCAE95F8E031002B7FF4DB
:10529000D7AEC5E97D3385F8F03185F8EC31D5F826
:1052A000CC31C5F8E4310F48D5F8143285F8E02147
:1052B000C5F8E831FFF7DEFC01283FF4DEAE022836
:1052C0007FF480AE0423C4E6237E1B077FF57DAF09
:1052D000064B93F89821002A7FF474AE072283F8D6
:1052E000982172E768610020B04F0020B05F002075
:1052F000C84F0020C85F0020A568E66A002384F834
:10530000283029462046FFF70DFC002866D194F886
:105310002830002B7FF456AE0223C4E90B6584F8D5
:1053200028304FE644F2817238E7626AE16AA1638D
:10533000042084F828002046C4E90B22C4E9023383
:1053400084F83C306363636209B0BDE8F0436DF0FC
:1053500081BF95F8B42112B9012285F8B4214549DD
:1053600001224A706FF00F02A5E6424901F580550F
:1053700095F9D2315F1C0AD003F5817301EB031359
:10538000DA7922F00102DA71FF2385F8D23195F93A
:10539000D3315E1C16D003F5817301EB031201EBD0
:1053A0000313D279D979C2F34502012A86BF02F1EB
:1053B000FF3202F03F02002262F34601FF22D97160
:1053C00085F8D321237ED8067FF53AAE2A486DF0C2
:1053D00041FF4FF6FF72022322843AE6002E3FF48B
:1053E000F1AD204633463AE6B8F81420B8F81A3042
:1053F000224D43EA02436362D5F81022D8F81C30EC
:10540000A3605202B3FBF2F102FB113109B1134464
:105410005B1AE36084F8199095F9D23115495E1C46
:105420000AD003F5817301EB0313DA7922F001024C
:10543000DA71FF2385F8D23195F9D321501C3FF45E
:10544000B0AE02F5817201EB021301EB0212DB79BF
:10545000D179C3F34503012B86BF03F1FF3303F07A
:105460003F03002363F34601FF23D17185F8D33155
:1054700097E600BFB04F002068610020B05F0020B9
:1054800070B50378017E023B012B044602D911F06E
:10549000060F68D18D0643D494F91A30581C0AD0EF
:1054A000374A03F5817302EB0313FF20DA7922F008
:1054B0000102DA71A07694F91B305A1C16D03048DC
:1054C00003F5817200EB021300EB0210DB79C27965
:1054D000C3F34503012B86BF03F1FF3303F03F0302
:1054E000002363F34602FF23C271E3760B070ED558
:1054F000244B93F89821072A06D093F8B421002A68
:1055000038D01F4A01215170002283F89821E26AA5
:105510000023237084F8283022B3BDE87040104780
:1055200000231948E5691A018258954206D00133D3
:10553000082BB1D01A0182589542F8D1104803F5D2
:10554000817300EB0312D279C2F34502012A15D907
:10555000013A02F03F0200EB0313D87962F34600F0
:10556000D87199E770BD0121FFF73AF90128F9D107
:10557000217E8FE7012283F8B421C2E70022EAE707
:10558000B04F0020B05F0020C85F002038B5184D34
:1055900005F58054014694F8E00120B961B191F815
:1055A000283013B138BD002038BD04F5DC7044222A
:1055B00077F046FC012038BD44220E4878F062FDA9
:1055C0002B78D4F81C12C4F8DC1103224FF6FF70BC
:1055D000022B18BF1346A4F8D20184F8D021054845
:1055E00084F8B831102284F8D1216DF033FEE1E760
:1055F000B04F0020686100204FF0FF3C2DE9F041E2
:10560000344A354D6446002304E00133082B02F18F
:10561000100216D010780428F7D103F5817005EB3D
:105620000010C179CE07F0D4601C52F80A1C01D0DA
:105630008C45EAD91C460133082B8C4602F1100236
:10564000E8D1002C02DA0120BDE8F081224DDFF81C
:10565000948004F5817705EB07139988D8F8D83C36
:10566000F9B92601D8F8D83CDFF87C802E4441F205
:10567000180208EB4421B058EBB1DC68174A00234C
:10568000A047C0B102280AD108F6E87805EB071553
:10569000D8F89C300122013BC8F89C30AA71002048
:1056A000D2E705EB041041F218022601805813B12D
:1056B0009B689847D6E70A4BD3F89C2005EB071563
:1056C0000320013A0121C3F89C20A87183F8A0109F
:1056D000E5E700BFD65F0020B04F0020410800087A
:1056E000B05F002078230020C84F00202DE9F04350
:1056F00090F82830013B83B00446082B0BD8DFE834
:1057000003F0393D1F24052A0A2F34000121FFF739
:10571000A7F8012802D003B0BDE8F0832378216CFC
:10572000002284F82820002BF5D0D4E9010383421D
:105730004FF0030238BF0346A36084F82820E162DB
:10574000204603B0BDE8F0439AE6002103B0BDE86F
:10575000F043FFF785B803B0BDE8F043FFF780B929
:1057600003B0BDE8F043FFF717B903B0BDE8F0435D
:10577000FFF780BA03B0BDE8F04309E4534F436834
:10578000D7F81852026BD7F8101290F800C01D40DD
:1057900005EB020EBEEB412F4FEA4126184645D3DA
:1057A000A7F580594FF6F778BCF1020F14D02169A4
:1057B000084600295ED16068A368E26A834238BF68
:1057C00003460021A36084F82810002AA3D02046B5
:1057D00003B0BDE8F04310476068D7F82012B0EB83
:1057E000412F68D22069217E090735D5D7F8941159
:1057F00000F1010E71452BD297F8B41100294BD15D
:10580000012387F8B43189F8013094F800C0636847
:10581000226B921B2A4433445B1B9642C4E904E08A
:105820006360226318464FF00005BDD9BCF1020F3A
:1058300041D021690029BFD0254B1B78032B40D0D4
:1058400089B24FF6F7739942B6D810446060B3E757
:10585000DFD14FF0000EDCE701A96DF021FC01283B
:105860007FF459AF2069DDF804E094F800C0636864
:10587000226BCEE799F800E0BEF1030F12D01FFAB9
:1058800081FEC64594BF4FF0000E4FF0010EBEF1F1
:10589000000FA8D06068CDE7012189F8011094F8C5
:1058A00000C0B6E7DFF82CE0714594BF4FF0000E62
:1058B0004FF0010EEBE7D7F82032B0EB432FC4D303
:1058C0007AE7044B99423FF677AFBEE7B05F00201E
:1058D000B04F0020F7FFFF0F70B5194D194BC5F8F9
:1058E000083B194B85F8141B002683F8886905F6D8
:1058F0000833C0E954330D23C0F8583140F2011386
:105900000446C0F85C6100F5A271A0F8443170F063
:10591000ABFB1F23C4E9EC36E378012205F587656C
:105920009342C4F8A853A4F89C2308BFC4F8AC530E
:1059300004F567712046BDE8704070F095BB00BF6C
:10594000703400205553425378230020F0B50B7873
:1059500013F0600283B004462BD0202A30D14A785D
:10596000FE2A39D0FF2A2DD14A88002A3BD1CA8885
:10597000002A38D11F0636D46148624B80F8882946
:10598000C4F8B423E278012183F85814A4F89C13D6
:1059900003F587631F21012AC4F8B013C4F8A833A4
:1059A00004F5677108BFC4F8AC33204670F05CFBA7
:1059B00006E04B780A2B1AD00B2B08D0012B2AD0EB
:1059C000002002E070F0E2F9022003B0F0BD4D4B80
:1059D0004A8883F8192BF3E74F8827B9CD88012D22
:1059E00001D11B0642D4204670F0D0F9ECE7022129
:1059F00080F811114FF48071A0F81C114249012365
:105A0000C0E94A11C0E94E33C0E94C3200F58E714D
:105A100070F0C8FAD4E78B88C0681E06DDB244D4A3
:105A20000192019A394B42F010020192019A0261EF
:105A300002690192013B02D0019AD206F8D4314E9C
:105A40002946204670F014FA294696F85854022345
:105A50004022204670F03CFA022DB1D1812120462F
:105A600070F0CCF9002386F85834A9E7254ED6F813
:105A700070349B699847C0B286F8180B0028B2D0E2
:105A8000022306F6183684F811314FF48073C4E906
:105A90004E55C4E94A66C4E94C57A4F81C3104F5D4
:105AA0008E71204670F07EFA8AE70092009A174BBA
:105AB00042F020020092009A65F38A120092009A46
:105AC000026102690092013B02D0009A9106F8D46B
:105AD0000C4E2946204670F0CBF9294696F85854CA
